{"contracts/Lock.sol":{"Lock":{"abi":[{"inputs":[{"internalType":"address[]","name":"_owners","type":"address[]"}],"stateMutability":"nonpayable","type":"constructor"},{"anonymous":false,"inputs":[{"indexed":false,"internalType":"uint256","name":"tokenId","type":"uint256"},{"indexed":false,"internalType":"address","name":"owner","type":"address"}],"name":"Deposit","type":"event"},{"anonymous":false,"inputs":[{"indexed":true,"internalType":"address","name":"sender","type":"address"},{"indexed":false,"internalType":"uint256","name":"amount","type":"uint256"},{"indexed":false,"internalType":"uint256","name":"balance","type":"uint256"}],"name":"DepositETH","type":"event"},{"anonymous":false,"inputs":[{"indexed":true,"internalType":"address","name":"previousOwner","type":"address"},{"indexed":true,"internalType":"address","name":"newOwner","type":"address"}],"name":"OwnershipTransferred","type":"event"},{"anonymous":false,"inputs":[{"indexed":false,"internalType":"uint256","name":"maxTotal","type":"uint256"}],"name":"SetMaxTotalUSDT","type":"event"},{"anonymous":false,"inputs":[{"indexed":false,"internalType":"uint256","name":"maxTotal","type":"uint256"}],"name":"SetMaxTotalWETH","type":"event"},{"anonymous":false,"inputs":[{"indexed":false,"internalType":"uint256","name":"duration","type":"uint256"}],"name":"SetMinLock","type":"event"},{"anonymous":false,"inputs":[{"indexed":false,"internalType":"uint256","name":"reward","type":"uint256"}],"name":"SetReward","type":"event"},{"anonymous":false,"inputs":[{"indexed":false,"internalType":"uint256","name":"tokenId","type":"uint256"},{"indexed":false,"internalType":"address","name":"owner","type":"address"},{"indexed":false,"internalType":"uint256","name":"rewardPaid","type":"uint256"}],"name":"Withdrawal","type":"event"},{"inputs":[],"name":"deployed","outputs":[{"internalType":"uint256","name":"","type":"uint256"}],"stateMutability":"view","type":"function"},{"inputs":[{"internalType":"uint256","name":"tokenId","type":"uint256"}],"name":"deposit","outputs":[],"stateMutability":"nonpayable","type":"function"},{"inputs":[{"internalType":"address","name":"","type":"address"},{"internalType":"uint256","name":"","type":"uint256"}],"name":"depositTimestamps","outputs":[{"internalType":"uint256","name":"","type":"uint256"}],"stateMutability":"view","type":"function"},{"inputs":[],"name":"maxTotalUSDT","outputs":[{"internalType":"uint256","name":"","type":"uint256"}],"stateMutability":"view","type":"function"},{"inputs":[],"name":"maxTotalWETH","outputs":[{"internalType":"uint256","name":"","type":"uint256"}],"stateMutability":"view","type":"function"},{"inputs":[],"name":"minLock","outputs":[{"internalType":"uint256","name":"","type":"uint256"}],"stateMutability":"view","type":"function"},{"inputs":[],"name":"nonfungiblePositionManager","outputs":[{"internalType":"contract INonfungiblePositionManager","name":"","type":"address"}],"stateMutability":"view","type":"function"},{"inputs":[{"internalType":"address","name":"","type":"address"},{"internalType":"address","name":"from","type":"address"},{"internalType":"uint256","name":"tokenId","type":"uint256"},{"internalType":"bytes","name":"data","type":"bytes"}],"name":"onERC721Received","outputs":[{"internalType":"bytes4","name":"","type":"bytes4"}],"stateMutability":"nonpayable","type":"function"},{"inputs":[],"name":"owner","outputs":[{"internalType":"address","name":"","type":"address"}],"stateMutability":"view","type":"function"},{"inputs":[],"name":"renounceOwnership","outputs":[],"stateMutability":"nonpayable","type":"function"},{"inputs":[],"name":"reward","outputs":[{"internalType":"uint256","name":"","type":"uint256"}],"stateMutability":"view","type":"function"},{"inputs":[],"name":"sdai","outputs":[{"internalType":"contract IERC20","name":"","type":"address"}],"stateMutability":"view","type":"function"},{"inputs":[{"internalType":"uint256","name":"_newMaxTotalUSDT","type":"uint256"}],"name":"setMaxTotalUSDT","outputs":[],"stateMutability":"nonpayable","type":"function"},{"inputs":[{"internalType":"uint256","name":"_newMaxTotalWETH","type":"uint256"}],"name":"setMaxTotalWETH","outputs":[],"stateMutability":"nonpayable","type":"function"},{"inputs":[{"internalType":"uint256","name":"_newMinLock","type":"uint256"}],"name":"setMinLock","outputs":[],"stateMutability":"nonpayable","type":"function"},{"inputs":[{"internalType":"uint256","name":"_newReward","type":"uint256"}],"name":"setReward","outputs":[],"stateMutability":"nonpayable","type":"function"},{"inputs":[],"name":"totalLiquidityUSDT","outputs":[{"internalType":"uint256","name":"","type":"uint256"}],"stateMutability":"view","type":"function"},{"inputs":[],"name":"totalLiquidityWETH","outputs":[{"internalType":"uint256","name":"","type":"uint256"}],"stateMutability":"view","type":"function"},{"inputs":[{"internalType":"uint256","name":"","type":"uint256"}],"name":"totalsUSDT","outputs":[{"internalType":"uint256","name":"","type":"uint256"}],"stateMutability":"view","type":"function"},{"inputs":[{"internalType":"uint256","name":"","type":"uint256"}],"name":"totalsWETH","outputs":[{"internalType":"uint256","name":"","type":"uint256"}],"stateMutability":"view","type":"function"},{"inputs":[{"internalType":"address","name":"newOwner","type":"address"}],"name":"transferOwnership","outputs":[],"stateMutability":"nonpayable","type":"function"},{"inputs":[],"name":"weth","outputs":[{"internalType":"contract IERC20","name":"","type":"address"}],"stateMutability":"view","type":"function"},{"inputs":[{"internalType":"uint256","name":"tokenId","type":"uint256"}],"name":"withdrawToken","outputs":[],"stateMutability":"nonpayable","type":"function"},{"stateMutability":"payable","type":"receive"}],"evm":{"bytecode":{"linkReferences":{},"object":"6101006040523480156200001257600080fd5b50604051620020883803806200208883398101604081905262000035916200016f565b6200004033620000ec565b7fc02aaa39b223fe8d0a0e5c4f27ead9083c756cc200000000000000000000000060a0527f83f20f44975d03b1b09e64809b757c47f942beea00000000000000000000000060c052426080526224ea006001908155620000a39060001962000241565b600855620000b5600160001962000241565b6005555064e8d4a510006002557fc36442b4a4522e871399cd717abdd847ab11fe8800000000000000000000000060e05262000267565b600080546001600160a01b038381166001600160a01b0319831681178455604051919092169283917f8be0079c531659141344cd1fd0a4f28419497f9722a3daafe3b4186f6b6457e09190a35050565b634e487b7160e01b600052604160045260246000fd5b80516001600160a01b03811681146200016a57600080fd5b919050565b600060208083850312156200018357600080fd5b82516001600160401b03808211156200019b57600080fd5b818501915085601f830112620001b057600080fd5b815181811115620001c557620001c56200013c565b8060051b604051601f19603f83011681018181108582111715620001ed57620001ed6200013c565b6040529182528482019250838101850191888311156200020c57600080fd5b938501935b828510156200023557620002258562000152565b8452938501939285019262000211565b98975050505050505050565b6000828210156200026257634e487b7160e01b600052601160045260246000fd5b500390565b60805160a05160601c60c05160601c60e05160601c611d91620002f76000396000818161043f01528181610f9101528181611637015261181101526000818161033d0152818161068f01526108310152600081816102780152610e7401526000818161053901528181610a8401528181610ac401528181610bd901528181610d4a01526118dd0152611d916000f3fe6080604052600436106101845760003560e01c80638da5cb5b116100d6578063d0f2dfaf1161007f578063f037c63011610059578063f037c630146104f1578063f2fde38b14610507578063f905c15a1461052757600080fd5b8063d0f2dfaf14610481578063d10b4f25146104ae578063e95af58c146104c457600080fd5b8063aa15af6a116100b0578063aa15af6a1461040d578063b44a27221461042d578063b6b55f251461046157600080fd5b80638da5cb5b146103ac578063a0440e55146103d7578063a1afb98f146103ed57600080fd5b806350baa622116101385780635b2eeca4116101125780635b2eeca41461032b578063715018a61461035f578063727462e51461037457600080fd5b806350baa622146102d557806354c77e0d146102f55780635769a6261461031557600080fd5b8063293be45611610169578063293be456146102445780633fc8cef3146102665780634e03c48f146102bf57600080fd5b8063150b7a02146101ca578063228cb7331461022057600080fd5b366101c5576040805134815247602082015233917f57e8e547a3ef8d890c570ca885b0a8c441be3070e36b7ad4c7d6b9d9316ff2ce910160405180910390a2005b600080fd5b3480156101d657600080fd5b506101ea6101e5366004611a15565b61055b565b6040517fffffffff0000000000000000000000000000000000000000000000000000000090911681526020015b60405180910390f35b34801561022c57600080fd5b5061023660025481565b604051908152602001610217565b34801561025057600080fd5b5061026461025f366004611ab4565b6108b9565b005b34801561027257600080fd5b5061029a7f000000000000000000000000000000000000000000000000000000000000000081565b60405173ffffffffffffffffffffffffffffffffffffffff9091168152602001610217565b3480156102cb57600080fd5b5061023660075481565b3480156102e157600080fd5b506102646102f0366004611ab4565b6108fd565b34801561030157600080fd5b50610264610310366004611ab4565b61104e565b34801561032157600080fd5b5061023660055481565b34801561033757600080fd5b5061029a7f000000000000000000000000000000000000000000000000000000000000000081565b34801561036b57600080fd5b5061026461108b565b34801561038057600080fd5b5061023661038f366004611acd565b600960209081526000928352604080842090915290825290205481565b3480156103b857600080fd5b5060005473ffffffffffffffffffffffffffffffffffffffff1661029a565b3480156103e357600080fd5b5061023660045481565b3480156103f957600080fd5b50610264610408366004611ab4565b61109f565b34801561041957600080fd5b50610264610428366004611ab4565b6110dc565b34801561043957600080fd5b5061029a7f000000000000000000000000000000000000000000000000000000000000000081565b34801561046d57600080fd5b5061026461047c366004611ab4565b6111b3565b34801561048d57600080fd5b5061023661049c366004611ab4565b60066020526000908152604090205481565b3480156104ba57600080fd5b5061023660085481565b3480156104d057600080fd5b506102366104df366004611ab4565b60036020526000908152604090205481565b3480156104fd57600080fd5b5061023660015481565b34801561051357600080fd5b50610264610522366004611af9565b6116d2565b34801561053357600080fd5b506102367f000000000000000000000000000000000000000000000000000000000000000081565b600061407c848114801561063557506040517f6352211e00000000000000000000000000000000000000000000000000000000815260048101829052733b3ee1931dc30c1957379fac9aba94d1c48a540590636352211e9060240160206040518083038186803b1580156105ce57600080fd5b505afa1580156105e2573d6000803e3d6000fd5b505050506040513d601f19601f820116820180604052508101906106069190611b2d565b73ffffffffffffffffffffffffffffffffffffffff163073ffffffffffffffffffffffffffffffffffffffff16145b1561070d576040517fa9059cbb00000000000000000000000000000000000000000000000000000000815273ffffffffffffffffffffffffffffffffffffffff87811660048301526980d3273c352cd1d8000060248301527f0000000000000000000000000000000000000000000000000000000000000000169063a9059cbb90604401602060405180830381600087803b1580156106d357600080fd5b505af11580156106e7573d6000803e3d6000fd5b505050506040513d601f19601f8201168201806040525081019061070b9190611b4a565b505b6040517f6352211e00000000000000000000000000000000000000000000000000000000815260026004820152730299cb33919dda82c72864f7ed7314a3205fb8c490636352211e9060240160206040518083038186803b15801561077157600080fd5b505afa158015610785573d6000803e3d6000fd5b505050506040513d601f19601f820116820180604052508101906107a99190611b2d565b73ffffffffffffffffffffffffffffffffffffffff163073ffffffffffffffffffffffffffffffffffffffff1614156108af576040517fa9059cbb00000000000000000000000000000000000000000000000000000000815273ffffffffffffffffffffffffffffffffffffffff8781166004830152690eb1428d2d1c6fbc000060248301527f0000000000000000000000000000000000000000000000000000000000000000169063a9059cbb90604401602060405180830381600087803b15801561087557600080fd5b505af1158015610889573d6000803e3d6000fd5b505050506040513d601f19601f820116820180604052508101906108ad9190611b4a565b505b5095945050505050565b6108c1611789565b60028190556040518181527fb0864f3dd8e8d4f8f298a778d03bccfb0bc1114b8e89b686ae5a58c7d78a5875906020015b60405180910390a150565b336000908152600960209081526040808320848452909152902054806109aa576040517f08c379a000000000000000000000000000000000000000000000000000000000815260206004820152603060248201527f4c6f636b3a3a77697468647261773a206e6f206f776e6572206578697374732060448201527f666f72207468697320746f6b656e49640000000000000000000000000000000060648201526084015b60405180910390fd5b6001546109b78242611b9b565b11610a6b576040517f08c379a0000000000000000000000000000000000000000000000000000000008152602060048201526044602482018190527f4c6f636b3a3a77697468647261773a206d696e696d756d206475726174696f6e908201527f20666f7220746865206465706f73697420686173206e6f7420656c617073656460648201527f2079657400000000000000000000000000000000000000000000000000000000608482015260a4016109a1565b600080610a778461180a565b9250509150600062093a807f000000000000000000000000000000000000000000000000000000000000000085610aae9190611b9b565b610ab89190611be1565b90506000610e10610ae97f000000000000000000000000000000000000000000000000000000000000000087611b9b565b610af39190611be1565b90506000610b028360a8611bf5565b610b0c9083611b9b565b9050600060a860025483610b209190611bf5565b610b2a9190611be1565b9050600073ffffffffffffffffffffffffffffffffffffffff871673c02aaa39b223fe8d0a0e5c4f27ead9083c756cc21415610c9f576000610b6a6118d2565b90505b80861015610bd1576000868152600660205260409020548015610bbe5780610ba76fffffffffffffffffffffffffffffffff8a1686611bf5565b610bb19190611be1565b610bbb9084611c32565b92505b610bc9600188611c32565b965050610b6d565b610e10610bfe7f000000000000000000000000000000000000000000000000000000000000000042611b9b565b610c089190611be1565b9450610c158160a8611bf5565b610c1f9086611b9b565b935060a8610c2d8486611bf5565b610c379190611be1565b600754909350610c596fffffffffffffffffffffffffffffffff891685611bf5565b610c639190611be1565b610c6d9083611c32565b9150866fffffffffffffffffffffffffffffffff1660076000828254610c939190611b9b565b90915550610e0b915050565b73ffffffffffffffffffffffffffffffffffffffff871673a0b86991c6218b36c1d19d4a2e9eb0ce3606eb481415610e0b576000610cdb6118d2565b90505b80861015610d42576000868152600360205260409020548015610d2f5780610d186fffffffffffffffffffffffffffffffff8a1686611bf5565b610d229190611be1565b610d2c9084611c32565b92505b610d3a600188611c32565b965050610cde565b610e10610d6f7f000000000000000000000000000000000000000000000000000000000000000042611b9b565b610d799190611be1565b9450610d868160a8611bf5565b610d909086611b9b565b935060a8610d9e8486611bf5565b610da89190611be1565b600454909350610dca6fffffffffffffffffffffffffffffffff891685611bf5565b610dd49190611be1565b610dde9083611c32565b9150866fffffffffffffffffffffffffffffffff1660046000828254610e049190611b9b565b9091555050505b3360008181526009602090815260408083208d845290915280822091909155517fa9059cbb00000000000000000000000000000000000000000000000000000000815260048101919091526024810182905273ffffffffffffffffffffffffffffffffffffffff7f0000000000000000000000000000000000000000000000000000000000000000169063a9059cbb90604401602060405180830381600087803b158015610eb857600080fd5b505af1158015610ecc573d6000803e3d6000fd5b505050506040513d601f19601f82011682018060405250810190610ef09190611b4a565b610f56576040517f08c379a000000000000000000000000000000000000000000000000000000000815260206004820152601f60248201527f4c6f636b3a3a77697468647261773a207472616e73666572206661696c65640060448201526064016109a1565b6040517f23b872dd000000000000000000000000000000000000000000000000000000008152306004820152336024820152604481018a90527f000000000000000000000000000000000000000000000000000000000000000073ffffffffffffffffffffffffffffffffffffffff16906323b872dd90606401600060405180830381600087803b158015610fea57600080fd5b505af1158015610ffe573d6000803e3d6000fd5b5050604080518c81523360208201529081018490527f37e8063b72a944a76de602f32b82fd8c2a1c6f99564c727ffaf913c7762cd4209250606001905060405180910390a1505050505050505050565b611056611789565b60058190556040518181527f203660ce3477c154f3838acb95842f88e336c3f91558171fba4a73c98dfd46de906020016108f2565b611093611789565b61109d600061197e565b565b6110a7611789565b60088190556040518181527f4ae6cf43c6b8013bb016c10cb65b01c7ad2f82f83711c9b8b4cff8c491024e72906020016108f2565b6110e4611789565b6110f162093a8082611c4a565b1561117e576040517f08c379a000000000000000000000000000000000000000000000000000000000815260206004820152602760248201527f556e693a3a6465706f7369743a204475726174696f6e206d757374206265206960448201527f6e207765656b730000000000000000000000000000000000000000000000000060648201526084016109a1565b60018190556040518181527fabb05374bb45ebfef33afb21ec5aa52333708d8217fd8e5c0616efd2530b2145906020016108f2565b60008060006111c18461180a565b9194509250905073ffffffffffffffffffffffffffffffffffffffff82167342cc020ef5e9681364abb5aba26f39626f1874a41461125b576040517f08c379a000000000000000000000000000000000000000000000000000000000815260206004820152601f60248201527f556e693a3a6465706f7369743a20696d70726f70657220746f6b656e2069640060448201526064016109a1565b6000816fffffffffffffffffffffffffffffffff16116112fd576040517f08c379a000000000000000000000000000000000000000000000000000000000815260206004820152602960248201527f556e693a3a6465706f7369743a2063616e6e6f74206465706f73697420656d7060448201527f747920616d6f756e74000000000000000000000000000000000000000000000060648201526084016109a1565b73ffffffffffffffffffffffffffffffffffffffff831673c02aaa39b223fe8d0a0e5c4f27ead9083c756cc2141561143457806fffffffffffffffffffffffffffffffff166006600061134e6118d2565b8152602001908152602001600020600082825461136b9190611c32565b92505081905550806fffffffffffffffffffffffffffffffff16600760008282546113969190611c32565b9091555050600854600754111561142f576040517f08c379a000000000000000000000000000000000000000000000000000000000815260206004820152602760248201527f556e693a3a6465706f7369743a20746f74616c4c69717569646974792065786360448201527f656564206d61780000000000000000000000000000000000000000000000000060648201526084016109a1565b6115c8565b73ffffffffffffffffffffffffffffffffffffffff831673a0b86991c6218b36c1d19d4a2e9eb0ce3606eb48141561156657806fffffffffffffffffffffffffffffffff16600360006114856118d2565b815260200190815260200160002060008282546114a29190611c32565b92505081905550806fffffffffffffffffffffffffffffffff16600460008282546114cd9190611c32565b9091555050600554600454111561142f576040517f08c379a000000000000000000000000000000000000000000000000000000000815260206004820152602760248201527f556e693a3a6465706f7369743a20746f74616c4c69717569646974792065786360448201527f656564206d61780000000000000000000000000000000000000000000000000060648201526084016109a1565b6040517f08c379a000000000000000000000000000000000000000000000000000000000815260206004820152601f60248201527f556e693a3a6465706f7369743a20696d70726f70657220746f6b656e2069640060448201526064016109a1565b33600081815260096020908152604080832088845290915290819020429055517f23b872dd00000000000000000000000000000000000000000000000000000000815260048101919091523060248201526044810185905273ffffffffffffffffffffffffffffffffffffffff7f000000000000000000000000000000000000000000000000000000000000000016906323b872dd90606401600060405180830381600087803b15801561167b57600080fd5b505af115801561168f573d6000803e3d6000fd5b5050604080518781523360208201527f4bcc17093cdf51079c755de089be5a85e70fa374ec656c194480fbdcda224a53935001905060405180910390a150505050565b6116da611789565b73ffffffffffffffffffffffffffffffffffffffff811661177d576040517f08c379a000000000000000000000000000000000000000000000000000000000815260206004820152602660248201527f4f776e61626c653a206e6577206f776e657220697320746865207a65726f206160448201527f646472657373000000000000000000000000000000000000000000000000000060648201526084016109a1565b6117868161197e565b50565b60005473ffffffffffffffffffffffffffffffffffffffff16331461109d576040517f08c379a000000000000000000000000000000000000000000000000000000000815260206004820181905260248201527f4f776e61626c653a2063616c6c6572206973206e6f7420746865206f776e657260448201526064016109a1565b60008060007f000000000000000000000000000000000000000000000000000000000000000073ffffffffffffffffffffffffffffffffffffffff166399fbab88856040518263ffffffff1660e01b815260040161186a91815260200190565b6101806040518083038186803b15801561188357600080fd5b505afa158015611897573d6000803e3d6000fd5b505050506040513d601f19601f820116820180604052508101906118bb9190611ca3565b50979e969d50919b50949950505050505050505050565b600062093a806119027f000000000000000000000000000000000000000000000000000000000000000042611b9b565b61190c9190611be1565b60008181526006602052604090205490915015801561192d57506000600754115b15611945576007546000828152600660205260409020555b60008181526003602052604090205415801561196357506000600454115b1561197b576004546000828152600360205260409020555b90565b6000805473ffffffffffffffffffffffffffffffffffffffff8381167fffffffffffffffffffffffff0000000000000000000000000000000000000000831681178455604051919092169283917f8be0079c531659141344cd1fd0a4f28419497f9722a3daafe3b4186f6b6457e09190a35050565b73ffffffffffffffffffffffffffffffffffffffff8116811461178657600080fd5b600080600080600060808688031215611a2d57600080fd5b8535611a38816119f3565b94506020860135611a48816119f3565b935060408601359250606086013567ffffffffffffffff80821115611a6c57600080fd5b818801915088601f830112611a8057600080fd5b813581811115611a8f57600080fd5b896020828501011115611aa157600080fd5b9699959850939650602001949392505050565b600060208284031215611ac657600080fd5b5035919050565b60008060408385031215611ae057600080fd5b8235611aeb816119f3565b946020939093013593505050565b600060208284031215611b0b57600080fd5b8135611b16816119f3565b9392505050565b8051611b28816119f3565b919050565b600060208284031215611b3f57600080fd5b8151611b16816119f3565b600060208284031215611b5c57600080fd5b81518015158114611b1657600080fd5b7f4e487b7100000000000000000000000000000000000000000000000000000000600052601160045260246000fd5b600082821015611bad57611bad611b6c565b500390565b7f4e487b7100000000000000000000000000000000000000000000000000000000600052601260045260246000fd5b600082611bf057611bf0611bb2565b500490565b6000817fffffffffffffffffffffffffffffffffffffffffffffffffffffffffffffffff0483118215151615611c2d57611c2d611b6c565b500290565b60008219821115611c4557611c45611b6c565b500190565b600082611c5957611c59611bb2565b500690565b805162ffffff81168114611b2857600080fd5b8051600281900b8114611b2857600080fd5b80516fffffffffffffffffffffffffffffffff81168114611b2857600080fd5b6000806000806000806000806000806000806101808d8f031215611cc657600080fd5b8c516bffffffffffffffffffffffff81168114611ce257600080fd5b9b50611cf060208e01611b1d565b9a50611cfe60408e01611b1d565b9950611d0c60608e01611b1d565b9850611d1a60808e01611c5e565b9750611d2860a08e01611c71565b9650611d3660c08e01611c71565b9550611d4460e08e01611c83565b94506101008d015193506101208d01519250611d636101408e01611c83565b9150611d726101608e01611c83565b90509295989b509295989b509295989b56fea164736f6c6343000808000a","opcodes":"PUSH2 0x100 PUSH1 0x40 MSTORE CALLVALUE DUP1 ISZERO PUSH3 0x12 JUMPI PUSH1 0x0 DUP1 REVERT JUMPDEST POP PUSH1 0x40 MLOAD PUSH3 0x2088 CODESIZE SUB DUP1 PUSH3 0x2088 DUP4 CODECOPY DUP2 ADD PUSH1 0x40 DUP2 SWAP1 MSTORE PUSH3 0x35 SWAP2 PUSH3 0x16F JUMP JUMPDEST PUSH3 0x40 CALLER PUSH3 0xEC JUMP JUMPDEST PUSH32 0xC02AAA39B223FE8D0A0E5C4F27EAD9083C756CC2000000000000000000000000 PUSH1 0xA0 MSTORE PUSH32 0x83F20F44975D03B1B09E64809B757C47F942BEEA000000000000000000000000 PUSH1 0xC0 MSTORE TIMESTAMP PUSH1 0x80 MSTORE PUSH3 0x24EA00 PUSH1 0x1 SWAP1 DUP2 SSTORE PUSH3 0xA3 SWAP1 PUSH1 0x0 NOT PUSH3 0x241 JUMP JUMPDEST PUSH1 0x8 SSTORE PUSH3 0xB5 PUSH1 0x1 PUSH1 0x0 NOT PUSH3 0x241 JUMP JUMPDEST PUSH1 0x5 SSTORE POP PUSH5 0xE8D4A51000 PUSH1 0x2 SSTORE PUSH32 0xC36442B4A4522E871399CD717ABDD847AB11FE88000000000000000000000000 PUSH1 0xE0 MSTORE PUSH3 0x267 JUMP JUMPDEST PUSH1 0x0 DUP1 SLOAD PUSH1 0x1 PUSH1 0x1 PUSH1 0xA0 SHL SUB DUP4 DUP2 AND PUSH1 0x1 PUSH1 0x1 PUSH1 0xA0 SHL SUB NOT DUP4 AND DUP2 OR DUP5 SSTORE PUSH1 0x40 MLOAD SWAP2 SWAP1 SWAP3 AND SWAP3 DUP4 SWAP2 PUSH32 0x8BE0079C531659141344CD1FD0A4F28419497F9722A3DAAFE3B4186F6B6457E0 SWAP2 SWAP1 LOG3 POP POP JUMP JUMPDEST PUSH4 0x4E487B71 PUSH1 0xE0 SHL PUSH1 0x0 MSTORE PUSH1 0x41 PUSH1 0x4 MSTORE PUSH1 0x24 PUSH1 0x0 REVERT JUMPDEST DUP1 MLOAD PUSH1 0x1 PUSH1 0x1 PUSH1 0xA0 SHL SUB DUP2 AND DUP2 EQ PUSH3 0x16A JUMPI PUSH1 0x0 DUP1 REVERT JUMPDEST SWAP2 SWAP1 POP JUMP JUMPDEST PUSH1 0x0 PUSH1 0x20 DUP1 DUP4 DUP6 SUB SLT ISZERO PUSH3 0x183 JUMPI PUSH1 0x0 DUP1 REVERT JUMPDEST DUP3 MLOAD PUSH1 0x1 PUSH1 0x1 PUSH1 0x40 SHL SUB DUP1 DUP3 GT ISZERO PUSH3 0x19B JUMPI PUSH1 0x0 DUP1 REVERT JUMPDEST DUP2 DUP6 ADD SWAP2 POP DUP6 PUSH1 0x1F DUP4 ADD SLT PUSH3 0x1B0 JUMPI PUSH1 0x0 DUP1 REVERT JUMPDEST DUP2 MLOAD DUP2 DUP2 GT ISZERO PUSH3 0x1C5 JUMPI PUSH3 0x1C5 PUSH3 0x13C JUMP JUMPDEST DUP1 PUSH1 0x5 SHL PUSH1 0x40 MLOAD PUSH1 0x1F NOT PUSH1 0x3F DUP4 ADD AND DUP2 ADD DUP2 DUP2 LT DUP6 DUP3 GT OR ISZERO PUSH3 0x1ED JUMPI PUSH3 0x1ED PUSH3 0x13C JUMP JUMPDEST PUSH1 0x40 MSTORE SWAP2 DUP3 MSTORE DUP5 DUP3 ADD SWAP3 POP DUP4 DUP2 ADD DUP6 ADD SWAP2 DUP9 DUP4 GT ISZERO PUSH3 0x20C JUMPI PUSH1 0x0 DUP1 REVERT JUMPDEST SWAP4 DUP6 ADD SWAP4 JUMPDEST DUP3 DUP6 LT ISZERO PUSH3 0x235 JUMPI PUSH3 0x225 DUP6 PUSH3 0x152 JUMP JUMPDEST DUP5 MSTORE SWAP4 DUP6 ADD SWAP4 SWAP3 DUP6 ADD SWAP3 PUSH3 0x211 JUMP JUMPDEST SWAP9 SWAP8 POP POP POP POP POP POP POP POP JUMP JUMPDEST PUSH1 0x0 DUP3 DUP3 LT ISZERO PUSH3 0x262 JUMPI PUSH4 0x4E487B71 PUSH1 0xE0 SHL PUSH1 0x0 MSTORE PUSH1 0x11 PUSH1 0x4 MSTORE PUSH1 0x24 PUSH1 0x0 REVERT JUMPDEST POP SUB SWAP1 JUMP JUMPDEST PUSH1 0x80 MLOAD PUSH1 0xA0 MLOAD PUSH1 0x60 SHR PUSH1 0xC0 MLOAD PUSH1 0x60 SHR PUSH1 0xE0 MLOAD PUSH1 0x60 SHR PUSH2 0x1D91 PUSH3 0x2F7 PUSH1 0x0 CODECOPY PUSH1 0x0 DUP2 DUP2 PUSH2 0x43F ADD MSTORE DUP2 DUP2 PUSH2 0xF91 ADD MSTORE DUP2 DUP2 PUSH2 0x1637 ADD MSTORE PUSH2 0x1811 ADD MSTORE PUSH1 0x0 DUP2 DUP2 PUSH2 0x33D ADD MSTORE DUP2 DUP2 PUSH2 0x68F ADD MSTORE PUSH2 0x831 ADD MSTORE PUSH1 0x0 DUP2 DUP2 PUSH2 0x278 ADD MSTORE PUSH2 0xE74 ADD MSTORE PUSH1 0x0 DUP2 DUP2 PUSH2 0x539 ADD MSTORE DUP2 DUP2 PUSH2 0xA84 ADD MSTORE DUP2 DUP2 PUSH2 0xAC4 ADD MSTORE DUP2 DUP2 PUSH2 0xBD9 ADD MSTORE DUP2 DUP2 PUSH2 0xD4A ADD MSTORE PUSH2 0x18DD ADD MSTORE PUSH2 0x1D91 PUSH1 0x0 RETURN INVALID PUSH1 0x80 PUSH1 0x40 MSTORE PUSH1 0x4 CALLDATASIZE LT PUSH2 0x184 JUMPI PUSH1 0x0 CALLDATALOAD PUSH1 0xE0 SHR DUP1 PUSH4 0x8DA5CB5B GT PUSH2 0xD6 JUMPI DUP1 PUSH4 0xD0F2DFAF GT PUSH2 0x7F JUMPI DUP1 PUSH4 0xF037C630 GT PUSH2 0x59 JUMPI DUP1 PUSH4 0xF037C630 EQ PUSH2 0x4F1 JUMPI DUP1 PUSH4 0xF2FDE38B EQ PUSH2 0x507 JUMPI DUP1 PUSH4 0xF905C15A EQ PUSH2 0x527 JUMPI PUSH1 0x0 DUP1 REVERT JUMPDEST DUP1 PUSH4 0xD0F2DFAF EQ PUSH2 0x481 JUMPI DUP1 PUSH4 0xD10B4F25 EQ PUSH2 0x4AE JUMPI DUP1 PUSH4 0xE95AF58C EQ PUSH2 0x4C4 JUMPI PUSH1 0x0 DUP1 REVERT JUMPDEST DUP1 PUSH4 0xAA15AF6A GT PUSH2 0xB0 JUMPI DUP1 PUSH4 0xAA15AF6A EQ PUSH2 0x40D JUMPI DUP1 PUSH4 0xB44A2722 EQ PUSH2 0x42D JUMPI DUP1 PUSH4 0xB6B55F25 EQ PUSH2 0x461 JUMPI PUSH1 0x0 DUP1 REVERT JUMPDEST DUP1 PUSH4 0x8DA5CB5B EQ PUSH2 0x3AC JUMPI DUP1 PUSH4 0xA0440E55 EQ PUSH2 0x3D7 JUMPI DUP1 PUSH4 0xA1AFB98F EQ PUSH2 0x3ED JUMPI PUSH1 0x0 DUP1 REVERT JUMPDEST DUP1 PUSH4 0x50BAA622 GT PUSH2 0x138 JUMPI DUP1 PUSH4 0x5B2EECA4 GT PUSH2 0x112 JUMPI DUP1 PUSH4 0x5B2EECA4 EQ PUSH2 0x32B JUMPI DUP1 PUSH4 0x715018A6 EQ PUSH2 0x35F JUMPI DUP1 PUSH4 0x727462E5 EQ PUSH2 0x374 JUMPI PUSH1 0x0 DUP1 REVERT JUMPDEST DUP1 PUSH4 0x50BAA622 EQ PUSH2 0x2D5 JUMPI DUP1 PUSH4 0x54C77E0D EQ PUSH2 0x2F5 JUMPI DUP1 PUSH4 0x5769A626 EQ PUSH2 0x315 JUMPI PUSH1 0x0 DUP1 REVERT JUMPDEST DUP1 PUSH4 0x293BE456 GT PUSH2 0x169 JUMPI DUP1 PUSH4 0x293BE456 EQ PUSH2 0x244 JUMPI DUP1 PUSH4 0x3FC8CEF3 EQ PUSH2 0x266 JUMPI DUP1 PUSH4 0x4E03C48F EQ PUSH2 0x2BF JUMPI PUSH1 0x0 DUP1 REVERT JUMPDEST DUP1 PUSH4 0x150B7A02 EQ PUSH2 0x1CA JUMPI DUP1 PUSH4 0x228CB733 EQ PUSH2 0x220 JUMPI PUSH1 0x0 DUP1 REVERT JUMPDEST CALLDATASIZE PUSH2 0x1C5 JUMPI PUSH1 0x40 DUP1 MLOAD CALLVALUE DUP2 MSTORE SELFBALANCE PUSH1 0x20 DUP3 ADD MSTORE CALLER SWAP2 PUSH32 0x57E8E547A3EF8D890C570CA885B0A8C441BE3070E36B7AD4C7D6B9D9316FF2CE SWAP2 ADD PUSH1 0x40 MLOAD DUP1 SWAP2 SUB SWAP1 LOG2 STOP JUMPDEST PUSH1 0x0 DUP1 REVERT JUMPDEST CALLVALUE DUP1 ISZERO PUSH2 0x1D6 JUMPI PUSH1 0x0 DUP1 REVERT JUMPDEST POP PUSH2 0x1EA PUSH2 0x1E5 CALLDATASIZE PUSH1 0x4 PUSH2 0x1A15 JUMP JUMPDEST PUSH2 0x55B JUMP JUMPDEST PUSH1 0x40 MLOAD PUSH32 0xFFFFFFFF00000000000000000000000000000000000000000000000000000000 SWAP1 SWAP2 AND DUP2 MSTORE PUSH1 0x20 ADD JUMPDEST PUSH1 0x40 MLOAD DUP1 SWAP2 SUB SWAP1 RETURN JUMPDEST CALLVALUE DUP1 ISZERO PUSH2 0x22C JUMPI PUSH1 0x0 DUP1 REVERT JUMPDEST POP PUSH2 0x236 PUSH1 0x2 SLOAD DUP2 JUMP JUMPDEST PUSH1 0x40 MLOAD SWAP1 DUP2 MSTORE PUSH1 0x20 ADD PUSH2 0x217 JUMP JUMPDEST CALLVALUE DUP1 ISZERO PUSH2 0x250 JUMPI PUSH1 0x0 DUP1 REVERT JUMPDEST POP PUSH2 0x264 PUSH2 0x25F CALLDATASIZE PUSH1 0x4 PUSH2 0x1AB4 JUMP JUMPDEST PUSH2 0x8B9 JUMP JUMPDEST STOP JUMPDEST CALLVALUE DUP1 ISZERO PUSH2 0x272 JUMPI PUSH1 0x0 DUP1 REVERT JUMPDEST POP PUSH2 0x29A PUSH32 0x0 DUP2 JUMP JUMPDEST PUSH1 0x40 MLOAD PUSH20 0xFFFFFFFFFFFFFFFFFFFFFFFFFFFFFFFFFFFFFFFF SWAP1 SWAP2 AND DUP2 MSTORE PUSH1 0x20 ADD PUSH2 0x217 JUMP JUMPDEST CALLVALUE DUP1 ISZERO PUSH2 0x2CB JUMPI PUSH1 0x0 DUP1 REVERT JUMPDEST POP PUSH2 0x236 PUSH1 0x7 SLOAD DUP2 JUMP JUMPDEST CALLVALUE DUP1 ISZERO PUSH2 0x2E1 JUMPI PUSH1 0x0 DUP1 REVERT JUMPDEST POP PUSH2 0x264 PUSH2 0x2F0 CALLDATASIZE PUSH1 0x4 PUSH2 0x1AB4 JUMP JUMPDEST PUSH2 0x8FD JUMP JUMPDEST CALLVALUE DUP1 ISZERO PUSH2 0x301 JUMPI PUSH1 0x0 DUP1 REVERT JUMPDEST POP PUSH2 0x264 PUSH2 0x310 CALLDATASIZE PUSH1 0x4 PUSH2 0x1AB4 JUMP JUMPDEST PUSH2 0x104E JUMP JUMPDEST CALLVALUE DUP1 ISZERO PUSH2 0x321 JUMPI PUSH1 0x0 DUP1 REVERT JUMPDEST POP PUSH2 0x236 PUSH1 0x5 SLOAD DUP2 JUMP JUMPDEST CALLVALUE DUP1 ISZERO PUSH2 0x337 JUMPI PUSH1 0x0 DUP1 REVERT JUMPDEST POP PUSH2 0x29A PUSH32 0x0 DUP2 JUMP JUMPDEST CALLVALUE DUP1 ISZERO PUSH2 0x36B JUMPI PUSH1 0x0 DUP1 REVERT JUMPDEST POP PUSH2 0x264 PUSH2 0x108B JUMP JUMPDEST CALLVALUE DUP1 ISZERO PUSH2 0x380 JUMPI PUSH1 0x0 DUP1 REVERT JUMPDEST POP PUSH2 0x236 PUSH2 0x38F CALLDATASIZE PUSH1 0x4 PUSH2 0x1ACD JUMP JUMPDEST PUSH1 0x9 PUSH1 0x20 SWAP1 DUP2 MSTORE PUSH1 0x0 SWAP3 DUP4 MSTORE PUSH1 0x40 DUP1 DUP5 KECCAK256 SWAP1 SWAP2 MSTORE SWAP1 DUP3 MSTORE SWAP1 KECCAK256 SLOAD DUP2 JUMP JUMPDEST CALLVALUE DUP1 ISZERO PUSH2 0x3B8 JUMPI PUSH1 0x0 DUP1 REVERT JUMPDEST POP PUSH1 0x0 SLOAD PUSH20 0xFFFFFFFFFFFFFFFFFFFFFFFFFFFFFFFFFFFFFFFF AND PUSH2 0x29A JUMP JUMPDEST CALLVALUE DUP1 ISZERO PUSH2 0x3E3 JUMPI PUSH1 0x0 DUP1 REVERT JUMPDEST POP PUSH2 0x236 PUSH1 0x4 SLOAD DUP2 JUMP JUMPDEST CALLVALUE DUP1 ISZERO PUSH2 0x3F9 JUMPI PUSH1 0x0 DUP1 REVERT JUMPDEST POP PUSH2 0x264 PUSH2 0x408 CALLDATASIZE PUSH1 0x4 PUSH2 0x1AB4 JUMP JUMPDEST PUSH2 0x109F JUMP JUMPDEST CALLVALUE DUP1 ISZERO PUSH2 0x419 JUMPI PUSH1 0x0 DUP1 REVERT JUMPDEST POP PUSH2 0x264 PUSH2 0x428 CALLDATASIZE PUSH1 0x4 PUSH2 0x1AB4 JUMP JUMPDEST PUSH2 0x10DC JUMP JUMPDEST CALLVALUE DUP1 ISZERO PUSH2 0x439 JUMPI PUSH1 0x0 DUP1 REVERT JUMPDEST POP PUSH2 0x29A PUSH32 0x0 DUP2 JUMP JUMPDEST CALLVALUE DUP1 ISZERO PUSH2 0x46D JUMPI PUSH1 0x0 DUP1 REVERT JUMPDEST POP PUSH2 0x264 PUSH2 0x47C CALLDATASIZE PUSH1 0x4 PUSH2 0x1AB4 JUMP JUMPDEST PUSH2 0x11B3 JUMP JUMPDEST CALLVALUE DUP1 ISZERO PUSH2 0x48D JUMPI PUSH1 0x0 DUP1 REVERT JUMPDEST POP PUSH2 0x236 PUSH2 0x49C CALLDATASIZE PUSH1 0x4 PUSH2 0x1AB4 JUMP JUMPDEST PUSH1 0x6 PUSH1 0x20 MSTORE PUSH1 0x0 SWAP1 DUP2 MSTORE PUSH1 0x40 SWAP1 KECCAK256 SLOAD DUP2 JUMP JUMPDEST CALLVALUE DUP1 ISZERO PUSH2 0x4BA JUMPI PUSH1 0x0 DUP1 REVERT JUMPDEST POP PUSH2 0x236 PUSH1 0x8 SLOAD DUP2 JUMP JUMPDEST CALLVALUE DUP1 ISZERO PUSH2 0x4D0 JUMPI PUSH1 0x0 DUP1 REVERT JUMPDEST POP PUSH2 0x236 PUSH2 0x4DF CALLDATASIZE PUSH1 0x4 PUSH2 0x1AB4 JUMP JUMPDEST PUSH1 0x3 PUSH1 0x20 MSTORE PUSH1 0x0 SWAP1 DUP2 MSTORE PUSH1 0x40 SWAP1 KECCAK256 SLOAD DUP2 JUMP JUMPDEST CALLVALUE DUP1 ISZERO PUSH2 0x4FD JUMPI PUSH1 0x0 DUP1 REVERT JUMPDEST POP PUSH2 0x236 PUSH1 0x1 SLOAD DUP2 JUMP JUMPDEST CALLVALUE DUP1 ISZERO PUSH2 0x513 JUMPI PUSH1 0x0 DUP1 REVERT JUMPDEST POP PUSH2 0x264 PUSH2 0x522 CALLDATASIZE PUSH1 0x4 PUSH2 0x1AF9 JUMP JUMPDEST PUSH2 0x16D2 JUMP JUMPDEST CALLVALUE DUP1 ISZERO PUSH2 0x533 JUMPI PUSH1 0x0 DUP1 REVERT JUMPDEST POP PUSH2 0x236 PUSH32 0x0 DUP2 JUMP JUMPDEST PUSH1 0x0 PUSH2 0x407C DUP5 DUP2 EQ DUP1 ISZERO PUSH2 0x635 JUMPI POP PUSH1 0x40 MLOAD PUSH32 0x6352211E00000000000000000000000000000000000000000000000000000000 DUP2 MSTORE PUSH1 0x4 DUP2 ADD DUP3 SWAP1 MSTORE PUSH20 0x3B3EE1931DC30C1957379FAC9ABA94D1C48A5405 SWAP1 PUSH4 0x6352211E SWAP1 PUSH1 0x24 ADD PUSH1 0x20 PUSH1 0x40 MLOAD DUP1 DUP4 SUB DUP2 DUP7 DUP1 EXTCODESIZE ISZERO DUP1 ISZERO PUSH2 0x5CE JUMPI PUSH1 0x0 DUP1 REVERT JUMPDEST POP GAS STATICCALL ISZERO DUP1 ISZERO PUSH2 0x5E2 JUMPI RETURNDATASIZE PUSH1 0x0 DUP1 RETURNDATACOPY RETURNDATASIZE PUSH1 0x0 REVERT JUMPDEST POP POP POP POP PUSH1 0x40 MLOAD RETURNDATASIZE PUSH1 0x1F NOT PUSH1 0x1F DUP3 ADD AND DUP3 ADD DUP1 PUSH1 0x40 MSTORE POP DUP2 ADD SWAP1 PUSH2 0x606 SWAP2 SWAP1 PUSH2 0x1B2D JUMP JUMPDEST PUSH20 0xFFFFFFFFFFFFFFFFFFFFFFFFFFFFFFFFFFFFFFFF AND ADDRESS PUSH20 0xFFFFFFFFFFFFFFFFFFFFFFFFFFFFFFFFFFFFFFFF AND EQ JUMPDEST ISZERO PUSH2 0x70D JUMPI PUSH1 0x40 MLOAD PUSH32 0xA9059CBB00000000000000000000000000000000000000000000000000000000 DUP2 MSTORE PUSH20 0xFFFFFFFFFFFFFFFFFFFFFFFFFFFFFFFFFFFFFFFF DUP8 DUP2 AND PUSH1 0x4 DUP4 ADD MSTORE PUSH10 0x80D3273C352CD1D80000 PUSH1 0x24 DUP4 ADD MSTORE PUSH32 0x0 AND SWAP1 PUSH4 0xA9059CBB SWAP1 PUSH1 0x44 ADD PUSH1 0x20 PUSH1 0x40 MLOAD DUP1 DUP4 SUB DUP2 PUSH1 0x0 DUP8 DUP1 EXTCODESIZE ISZERO DUP1 ISZERO PUSH2 0x6D3 JUMPI PUSH1 0x0 DUP1 REVERT JUMPDEST POP GAS CALL ISZERO DUP1 ISZERO PUSH2 0x6E7 JUMPI RETURNDATASIZE PUSH1 0x0 DUP1 RETURNDATACOPY RETURNDATASIZE PUSH1 0x0 REVERT JUMPDEST POP POP POP POP PUSH1 0x40 MLOAD RETURNDATASIZE PUSH1 0x1F NOT PUSH1 0x1F DUP3 ADD AND DUP3 ADD DUP1 PUSH1 0x40 MSTORE POP DUP2 ADD SWAP1 PUSH2 0x70B SWAP2 SWAP1 PUSH2 0x1B4A JUMP JUMPDEST POP JUMPDEST PUSH1 0x40 MLOAD PUSH32 0x6352211E00000000000000000000000000000000000000000000000000000000 DUP2 MSTORE PUSH1 0x2 PUSH1 0x4 DUP3 ADD MSTORE PUSH20 0x299CB33919DDA82C72864F7ED7314A3205FB8C4 SWAP1 PUSH4 0x6352211E SWAP1 PUSH1 0x24 ADD PUSH1 0x20 PUSH1 0x40 MLOAD DUP1 DUP4 SUB DUP2 DUP7 DUP1 EXTCODESIZE ISZERO DUP1 ISZERO PUSH2 0x771 JUMPI PUSH1 0x0 DUP1 REVERT JUMPDEST POP GAS STATICCALL ISZERO DUP1 ISZERO PUSH2 0x785 JUMPI RETURNDATASIZE PUSH1 0x0 DUP1 RETURNDATACOPY RETURNDATASIZE PUSH1 0x0 REVERT JUMPDEST POP POP POP POP PUSH1 0x40 MLOAD RETURNDATASIZE PUSH1 0x1F NOT PUSH1 0x1F DUP3 ADD AND DUP3 ADD DUP1 PUSH1 0x40 MSTORE POP DUP2 ADD SWAP1 PUSH2 0x7A9 SWAP2 SWAP1 PUSH2 0x1B2D JUMP JUMPDEST PUSH20 0xFFFFFFFFFFFFFFFFFFFFFFFFFFFFFFFFFFFFFFFF AND ADDRESS PUSH20 0xFFFFFFFFFFFFFFFFFFFFFFFFFFFFFFFFFFFFFFFF AND EQ ISZERO PUSH2 0x8AF JUMPI PUSH1 0x40 MLOAD PUSH32 0xA9059CBB00000000000000000000000000000000000000000000000000000000 DUP2 MSTORE PUSH20 0xFFFFFFFFFFFFFFFFFFFFFFFFFFFFFFFFFFFFFFFF DUP8 DUP2 AND PUSH1 0x4 DUP4 ADD MSTORE PUSH10 0xEB1428D2D1C6FBC0000 PUSH1 0x24 DUP4 ADD MSTORE PUSH32 0x0 AND SWAP1 PUSH4 0xA9059CBB SWAP1 PUSH1 0x44 ADD PUSH1 0x20 PUSH1 0x40 MLOAD DUP1 DUP4 SUB DUP2 PUSH1 0x0 DUP8 DUP1 EXTCODESIZE ISZERO DUP1 ISZERO PUSH2 0x875 JUMPI PUSH1 0x0 DUP1 REVERT JUMPDEST POP GAS CALL ISZERO DUP1 ISZERO PUSH2 0x889 JUMPI RETURNDATASIZE PUSH1 0x0 DUP1 RETURNDATACOPY RETURNDATASIZE PUSH1 0x0 REVERT JUMPDEST POP POP POP POP PUSH1 0x40 MLOAD RETURNDATASIZE PUSH1 0x1F NOT PUSH1 0x1F DUP3 ADD AND DUP3 ADD DUP1 PUSH1 0x40 MSTORE POP DUP2 ADD SWAP1 PUSH2 0x8AD SWAP2 SWAP1 PUSH2 0x1B4A JUMP JUMPDEST POP JUMPDEST POP SWAP6 SWAP5 POP POP POP POP POP JUMP JUMPDEST PUSH2 0x8C1 PUSH2 0x1789 JUMP JUMPDEST PUSH1 0x2 DUP2 SWAP1 SSTORE PUSH1 0x40 MLOAD DUP2 DUP2 MSTORE PUSH32 0xB0864F3DD8E8D4F8F298A778D03BCCFB0BC1114B8E89B686AE5A58C7D78A5875 SWAP1 PUSH1 0x20 ADD JUMPDEST PUSH1 0x40 MLOAD DUP1 SWAP2 SUB SWAP1 LOG1 POP JUMP JUMPDEST CALLER PUSH1 0x0 SWAP1 DUP2 MSTORE PUSH1 0x9 PUSH1 0x20 SWAP1 DUP2 MSTORE PUSH1 0x40 DUP1 DUP4 KECCAK256 DUP5 DUP5 MSTORE SWAP1 SWAP2 MSTORE SWAP1 KECCAK256 SLOAD DUP1 PUSH2 0x9AA JUMPI PUSH1 0x40 MLOAD PUSH32 0x8C379A000000000000000000000000000000000000000000000000000000000 DUP2 MSTORE PUSH1 0x20 PUSH1 0x4 DUP3 ADD MSTORE PUSH1 0x30 PUSH1 0x24 DUP3 ADD MSTORE PUSH32 0x4C6F636B3A3A77697468647261773A206E6F206F776E65722065786973747320 PUSH1 0x44 DUP3 ADD MSTORE PUSH32 0x666F72207468697320746F6B656E496400000000000000000000000000000000 PUSH1 0x64 DUP3 ADD MSTORE PUSH1 0x84 ADD JUMPDEST PUSH1 0x40 MLOAD DUP1 SWAP2 SUB SWAP1 REVERT JUMPDEST PUSH1 0x1 SLOAD PUSH2 0x9B7 DUP3 TIMESTAMP PUSH2 0x1B9B JUMP JUMPDEST GT PUSH2 0xA6B JUMPI PUSH1 0x40 MLOAD PUSH32 0x8C379A000000000000000000000000000000000000000000000000000000000 DUP2 MSTORE PUSH1 0x20 PUSH1 0x4 DUP3 ADD MSTORE PUSH1 0x44 PUSH1 0x24 DUP3 ADD DUP2 SWAP1 MSTORE PUSH32 0x4C6F636B3A3A77697468647261773A206D696E696D756D206475726174696F6E SWAP1 DUP3 ADD MSTORE PUSH32 0x20666F7220746865206465706F73697420686173206E6F7420656C6170736564 PUSH1 0x64 DUP3 ADD MSTORE PUSH32 0x2079657400000000000000000000000000000000000000000000000000000000 PUSH1 0x84 DUP3 ADD MSTORE PUSH1 0xA4 ADD PUSH2 0x9A1 JUMP JUMPDEST PUSH1 0x0 DUP1 PUSH2 0xA77 DUP5 PUSH2 0x180A JUMP JUMPDEST SWAP3 POP POP SWAP2 POP PUSH1 0x0 PUSH3 0x93A80 PUSH32 0x0 DUP6 PUSH2 0xAAE SWAP2 SWAP1 PUSH2 0x1B9B JUMP JUMPDEST PUSH2 0xAB8 SWAP2 SWAP1 PUSH2 0x1BE1 JUMP JUMPDEST SWAP1 POP PUSH1 0x0 PUSH2 0xE10 PUSH2 0xAE9 PUSH32 0x0 DUP8 PUSH2 0x1B9B JUMP JUMPDEST PUSH2 0xAF3 SWAP2 SWAP1 PUSH2 0x1BE1 JUMP JUMPDEST SWAP1 POP PUSH1 0x0 PUSH2 0xB02 DUP4 PUSH1 0xA8 PUSH2 0x1BF5 JUMP JUMPDEST PUSH2 0xB0C SWAP1 DUP4 PUSH2 0x1B9B JUMP JUMPDEST SWAP1 POP PUSH1 0x0 PUSH1 0xA8 PUSH1 0x2 SLOAD DUP4 PUSH2 0xB20 SWAP2 SWAP1 PUSH2 0x1BF5 JUMP JUMPDEST PUSH2 0xB2A SWAP2 SWAP1 PUSH2 0x1BE1 JUMP JUMPDEST SWAP1 POP PUSH1 0x0 PUSH20 0xFFFFFFFFFFFFFFFFFFFFFFFFFFFFFFFFFFFFFFFF DUP8 AND PUSH20 0xC02AAA39B223FE8D0A0E5C4F27EAD9083C756CC2 EQ ISZERO PUSH2 0xC9F JUMPI PUSH1 0x0 PUSH2 0xB6A PUSH2 0x18D2 JUMP JUMPDEST SWAP1 POP JUMPDEST DUP1 DUP7 LT ISZERO PUSH2 0xBD1 JUMPI PUSH1 0x0 DUP7 DUP2 MSTORE PUSH1 0x6 PUSH1 0x20 MSTORE PUSH1 0x40 SWAP1 KECCAK256 SLOAD DUP1 ISZERO PUSH2 0xBBE JUMPI DUP1 PUSH2 0xBA7 PUSH16 0xFFFFFFFFFFFFFFFFFFFFFFFFFFFFFFFF DUP11 AND DUP7 PUSH2 0x1BF5 JUMP JUMPDEST PUSH2 0xBB1 SWAP2 SWAP1 PUSH2 0x1BE1 JUMP JUMPDEST PUSH2 0xBBB SWAP1 DUP5 PUSH2 0x1C32 JUMP JUMPDEST SWAP3 POP JUMPDEST PUSH2 0xBC9 PUSH1 0x1 DUP9 PUSH2 0x1C32 JUMP JUMPDEST SWAP7 POP POP PUSH2 0xB6D JUMP JUMPDEST PUSH2 0xE10 PUSH2 0xBFE PUSH32 0x0 TIMESTAMP PUSH2 0x1B9B JUMP JUMPDEST PUSH2 0xC08 SWAP2 SWAP1 PUSH2 0x1BE1 JUMP JUMPDEST SWAP5 POP PUSH2 0xC15 DUP2 PUSH1 0xA8 PUSH2 0x1BF5 JUMP JUMPDEST PUSH2 0xC1F SWAP1 DUP7 PUSH2 0x1B9B JUMP JUMPDEST SWAP4 POP PUSH1 0xA8 PUSH2 0xC2D DUP5 DUP7 PUSH2 0x1BF5 JUMP JUMPDEST PUSH2 0xC37 SWAP2 SWAP1 PUSH2 0x1BE1 JUMP JUMPDEST PUSH1 0x7 SLOAD SWAP1 SWAP4 POP PUSH2 0xC59 PUSH16 0xFFFFFFFFFFFFFFFFFFFFFFFFFFFFFFFF DUP10 AND DUP6 PUSH2 0x1BF5 JUMP JUMPDEST PUSH2 0xC63 SWAP2 SWAP1 PUSH2 0x1BE1 JUMP JUMPDEST PUSH2 0xC6D SWAP1 DUP4 PUSH2 0x1C32 JUMP JUMPDEST SWAP2 POP DUP7 PUSH16 0xFFFFFFFFFFFFFFFFFFFFFFFFFFFFFFFF AND PUSH1 0x7 PUSH1 0x0 DUP3 DUP3 SLOAD PUSH2 0xC93 SWAP2 SWAP1 PUSH2 0x1B9B JUMP JUMPDEST SWAP1 SWAP2 SSTORE POP PUSH2 0xE0B SWAP2 POP POP JUMP JUMPDEST PUSH20 0xFFFFFFFFFFFFFFFFFFFFFFFFFFFFFFFFFFFFFFFF DUP8 AND PUSH20 0xA0B86991C6218B36C1D19D4A2E9EB0CE3606EB48 EQ ISZERO PUSH2 0xE0B JUMPI PUSH1 0x0 PUSH2 0xCDB PUSH2 0x18D2 JUMP JUMPDEST SWAP1 POP JUMPDEST DUP1 DUP7 LT ISZERO PUSH2 0xD42 JUMPI PUSH1 0x0 DUP7 DUP2 MSTORE PUSH1 0x3 PUSH1 0x20 MSTORE PUSH1 0x40 SWAP1 KECCAK256 SLOAD DUP1 ISZERO PUSH2 0xD2F JUMPI DUP1 PUSH2 0xD18 PUSH16 0xFFFFFFFFFFFFFFFFFFFFFFFFFFFFFFFF DUP11 AND DUP7 PUSH2 0x1BF5 JUMP JUMPDEST PUSH2 0xD22 SWAP2 SWAP1 PUSH2 0x1BE1 JUMP JUMPDEST PUSH2 0xD2C SWAP1 DUP5 PUSH2 0x1C32 JUMP JUMPDEST SWAP3 POP JUMPDEST PUSH2 0xD3A PUSH1 0x1 DUP9 PUSH2 0x1C32 JUMP JUMPDEST SWAP7 POP POP PUSH2 0xCDE JUMP JUMPDEST PUSH2 0xE10 PUSH2 0xD6F PUSH32 0x0 TIMESTAMP PUSH2 0x1B9B JUMP JUMPDEST PUSH2 0xD79 SWAP2 SWAP1 PUSH2 0x1BE1 JUMP JUMPDEST SWAP5 POP PUSH2 0xD86 DUP2 PUSH1 0xA8 PUSH2 0x1BF5 JUMP JUMPDEST PUSH2 0xD90 SWAP1 DUP7 PUSH2 0x1B9B JUMP JUMPDEST SWAP4 POP PUSH1 0xA8 PUSH2 0xD9E DUP5 DUP7 PUSH2 0x1BF5 JUMP JUMPDEST PUSH2 0xDA8 SWAP2 SWAP1 PUSH2 0x1BE1 JUMP JUMPDEST PUSH1 0x4 SLOAD SWAP1 SWAP4 POP PUSH2 0xDCA PUSH16 0xFFFFFFFFFFFFFFFFFFFFFFFFFFFFFFFF DUP10 AND DUP6 PUSH2 0x1BF5 JUMP JUMPDEST PUSH2 0xDD4 SWAP2 SWAP1 PUSH2 0x1BE1 JUMP JUMPDEST PUSH2 0xDDE SWAP1 DUP4 PUSH2 0x1C32 JUMP JUMPDEST SWAP2 POP DUP7 PUSH16 0xFFFFFFFFFFFFFFFFFFFFFFFFFFFFFFFF AND PUSH1 0x4 PUSH1 0x0 DUP3 DUP3 SLOAD PUSH2 0xE04 SWAP2 SWAP1 PUSH2 0x1B9B JUMP JUMPDEST SWAP1 SWAP2 SSTORE POP POP POP JUMPDEST CALLER PUSH1 0x0 DUP2 DUP2 MSTORE PUSH1 0x9 PUSH1 0x20 SWAP1 DUP2 MSTORE PUSH1 0x40 DUP1 DUP4 KECCAK256 DUP14 DUP5 MSTORE SWAP1 SWAP2 MSTORE DUP1 DUP3 KECCAK256 SWAP2 SWAP1 SWAP2 SSTORE MLOAD PUSH32 0xA9059CBB00000000000000000000000000000000000000000000000000000000 DUP2 MSTORE PUSH1 0x4 DUP2 ADD SWAP2 SWAP1 SWAP2 MSTORE PUSH1 0x24 DUP2 ADD DUP3 SWAP1 MSTORE PUSH20 0xFFFFFFFFFFFFFFFFFFFFFFFFFFFFFFFFFFFFFFFF PUSH32 0x0 AND SWAP1 PUSH4 0xA9059CBB SWAP1 PUSH1 0x44 ADD PUSH1 0x20 PUSH1 0x40 MLOAD DUP1 DUP4 SUB DUP2 PUSH1 0x0 DUP8 DUP1 EXTCODESIZE ISZERO DUP1 ISZERO PUSH2 0xEB8 JUMPI PUSH1 0x0 DUP1 REVERT JUMPDEST POP GAS CALL ISZERO DUP1 ISZERO PUSH2 0xECC JUMPI RETURNDATASIZE PUSH1 0x0 DUP1 RETURNDATACOPY RETURNDATASIZE PUSH1 0x0 REVERT JUMPDEST POP POP POP POP PUSH1 0x40 MLOAD RETURNDATASIZE PUSH1 0x1F NOT PUSH1 0x1F DUP3 ADD AND DUP3 ADD DUP1 PUSH1 0x40 MSTORE POP DUP2 ADD SWAP1 PUSH2 0xEF0 SWAP2 SWAP1 PUSH2 0x1B4A JUMP JUMPDEST PUSH2 0xF56 JUMPI PUSH1 0x40 MLOAD PUSH32 0x8C379A000000000000000000000000000000000000000000000000000000000 DUP2 MSTORE PUSH1 0x20 PUSH1 0x4 DUP3 ADD MSTORE PUSH1 0x1F PUSH1 0x24 DUP3 ADD MSTORE PUSH32 0x4C6F636B3A3A77697468647261773A207472616E73666572206661696C656400 PUSH1 0x44 DUP3 ADD MSTORE PUSH1 0x64 ADD PUSH2 0x9A1 JUMP JUMPDEST PUSH1 0x40 MLOAD PUSH32 0x23B872DD00000000000000000000000000000000000000000000000000000000 DUP2 MSTORE ADDRESS PUSH1 0x4 DUP3 ADD MSTORE CALLER PUSH1 0x24 DUP3 ADD MSTORE PUSH1 0x44 DUP2 ADD DUP11 SWAP1 MSTORE PUSH32 0x0 PUSH20 0xFFFFFFFFFFFFFFFFFFFFFFFFFFFFFFFFFFFFFFFF AND SWAP1 PUSH4 0x23B872DD SWAP1 PUSH1 0x64 ADD PUSH1 0x0 PUSH1 0x40 MLOAD DUP1 DUP4 SUB DUP2 PUSH1 0x0 DUP8 DUP1 EXTCODESIZE ISZERO DUP1 ISZERO PUSH2 0xFEA JUMPI PUSH1 0x0 DUP1 REVERT JUMPDEST POP GAS CALL ISZERO DUP1 ISZERO PUSH2 0xFFE JUMPI RETURNDATASIZE PUSH1 0x0 DUP1 RETURNDATACOPY RETURNDATASIZE PUSH1 0x0 REVERT JUMPDEST POP POP PUSH1 0x40 DUP1 MLOAD DUP13 DUP2 MSTORE CALLER PUSH1 0x20 DUP3 ADD MSTORE SWAP1 DUP2 ADD DUP5 SWAP1 MSTORE PUSH32 0x37E8063B72A944A76DE602F32B82FD8C2A1C6F99564C727FFAF913C7762CD420 SWAP3 POP PUSH1 0x60 ADD SWAP1 POP PUSH1 0x40 MLOAD DUP1 SWAP2 SUB SWAP1 LOG1 POP POP POP POP POP POP POP POP POP JUMP JUMPDEST PUSH2 0x1056 PUSH2 0x1789 JUMP JUMPDEST PUSH1 0x5 DUP2 SWAP1 SSTORE PUSH1 0x40 MLOAD DUP2 DUP2 MSTORE PUSH32 0x203660CE3477C154F3838ACB95842F88E336C3F91558171FBA4A73C98DFD46DE SWAP1 PUSH1 0x20 ADD PUSH2 0x8F2 JUMP JUMPDEST PUSH2 0x1093 PUSH2 0x1789 JUMP JUMPDEST PUSH2 0x109D PUSH1 0x0 PUSH2 0x197E JUMP JUMPDEST JUMP JUMPDEST PUSH2 0x10A7 PUSH2 0x1789 JUMP JUMPDEST PUSH1 0x8 DUP2 SWAP1 SSTORE PUSH1 0x40 MLOAD DUP2 DUP2 MSTORE PUSH32 0x4AE6CF43C6B8013BB016C10CB65B01C7AD2F82F83711C9B8B4CFF8C491024E72 SWAP1 PUSH1 0x20 ADD PUSH2 0x8F2 JUMP JUMPDEST PUSH2 0x10E4 PUSH2 0x1789 JUMP JUMPDEST PUSH2 0x10F1 PUSH3 0x93A80 DUP3 PUSH2 0x1C4A JUMP JUMPDEST ISZERO PUSH2 0x117E JUMPI PUSH1 0x40 MLOAD PUSH32 0x8C379A000000000000000000000000000000000000000000000000000000000 DUP2 MSTORE PUSH1 0x20 PUSH1 0x4 DUP3 ADD MSTORE PUSH1 0x27 PUSH1 0x24 DUP3 ADD MSTORE PUSH32 0x556E693A3A6465706F7369743A204475726174696F6E206D7573742062652069 PUSH1 0x44 DUP3 ADD MSTORE PUSH32 0x6E207765656B7300000000000000000000000000000000000000000000000000 PUSH1 0x64 DUP3 ADD MSTORE PUSH1 0x84 ADD PUSH2 0x9A1 JUMP JUMPDEST PUSH1 0x1 DUP2 SWAP1 SSTORE PUSH1 0x40 MLOAD DUP2 DUP2 MSTORE PUSH32 0xABB05374BB45EBFEF33AFB21EC5AA52333708D8217FD8E5C0616EFD2530B2145 SWAP1 PUSH1 0x20 ADD PUSH2 0x8F2 JUMP JUMPDEST PUSH1 0x0 DUP1 PUSH1 0x0 PUSH2 0x11C1 DUP5 PUSH2 0x180A JUMP JUMPDEST SWAP2 SWAP5 POP SWAP3 POP SWAP1 POP PUSH20 0xFFFFFFFFFFFFFFFFFFFFFFFFFFFFFFFFFFFFFFFF DUP3 AND PUSH20 0x42CC020EF5E9681364ABB5ABA26F39626F1874A4 EQ PUSH2 0x125B JUMPI PUSH1 0x40 MLOAD PUSH32 0x8C379A000000000000000000000000000000000000000000000000000000000 DUP2 MSTORE PUSH1 0x20 PUSH1 0x4 DUP3 ADD MSTORE PUSH1 0x1F PUSH1 0x24 DUP3 ADD MSTORE PUSH32 0x556E693A3A6465706F7369743A20696D70726F70657220746F6B656E20696400 PUSH1 0x44 DUP3 ADD MSTORE PUSH1 0x64 ADD PUSH2 0x9A1 JUMP JUMPDEST PUSH1 0x0 DUP2 PUSH16 0xFFFFFFFFFFFFFFFFFFFFFFFFFFFFFFFF AND GT PUSH2 0x12FD JUMPI PUSH1 0x40 MLOAD PUSH32 0x8C379A000000000000000000000000000000000000000000000000000000000 DUP2 MSTORE PUSH1 0x20 PUSH1 0x4 DUP3 ADD MSTORE PUSH1 0x29 PUSH1 0x24 DUP3 ADD MSTORE PUSH32 0x556E693A3A6465706F7369743A2063616E6E6F74206465706F73697420656D70 PUSH1 0x44 DUP3 ADD MSTORE PUSH32 0x747920616D6F756E740000000000000000000000000000000000000000000000 PUSH1 0x64 DUP3 ADD MSTORE PUSH1 0x84 ADD PUSH2 0x9A1 JUMP JUMPDEST PUSH20 0xFFFFFFFFFFFFFFFFFFFFFFFFFFFFFFFFFFFFFFFF DUP4 AND PUSH20 0xC02AAA39B223FE8D0A0E5C4F27EAD9083C756CC2 EQ ISZERO PUSH2 0x1434 JUMPI DUP1 PUSH16 0xFFFFFFFFFFFFFFFFFFFFFFFFFFFFFFFF AND PUSH1 0x6 PUSH1 0x0 PUSH2 0x134E PUSH2 0x18D2 JUMP JUMPDEST DUP2 MSTORE PUSH1 0x20 ADD SWAP1 DUP2 MSTORE PUSH1 0x20 ADD PUSH1 0x0 KECCAK256 PUSH1 0x0 DUP3 DUP3 SLOAD PUSH2 0x136B SWAP2 SWAP1 PUSH2 0x1C32 JUMP JUMPDEST SWAP3 POP POP DUP2 SWAP1 SSTORE POP DUP1 PUSH16 0xFFFFFFFFFFFFFFFFFFFFFFFFFFFFFFFF AND PUSH1 0x7 PUSH1 0x0 DUP3 DUP3 SLOAD PUSH2 0x1396 SWAP2 SWAP1 PUSH2 0x1C32 JUMP JUMPDEST SWAP1 SWAP2 SSTORE POP POP PUSH1 0x8 SLOAD PUSH1 0x7 SLOAD GT ISZERO PUSH2 0x142F JUMPI PUSH1 0x40 MLOAD PUSH32 0x8C379A000000000000000000000000000000000000000000000000000000000 DUP2 MSTORE PUSH1 0x20 PUSH1 0x4 DUP3 ADD MSTORE PUSH1 0x27 PUSH1 0x24 DUP3 ADD MSTORE PUSH32 0x556E693A3A6465706F7369743A20746F74616C4C697175696469747920657863 PUSH1 0x44 DUP3 ADD MSTORE PUSH32 0x656564206D617800000000000000000000000000000000000000000000000000 PUSH1 0x64 DUP3 ADD MSTORE PUSH1 0x84 ADD PUSH2 0x9A1 JUMP JUMPDEST PUSH2 0x15C8 JUMP JUMPDEST PUSH20 0xFFFFFFFFFFFFFFFFFFFFFFFFFFFFFFFFFFFFFFFF DUP4 AND PUSH20 0xA0B86991C6218B36C1D19D4A2E9EB0CE3606EB48 EQ ISZERO PUSH2 0x1566 JUMPI DUP1 PUSH16 0xFFFFFFFFFFFFFFFFFFFFFFFFFFFFFFFF AND PUSH1 0x3 PUSH1 0x0 PUSH2 0x1485 PUSH2 0x18D2 JUMP JUMPDEST DUP2 MSTORE PUSH1 0x20 ADD SWAP1 DUP2 MSTORE PUSH1 0x20 ADD PUSH1 0x0 KECCAK256 PUSH1 0x0 DUP3 DUP3 SLOAD PUSH2 0x14A2 SWAP2 SWAP1 PUSH2 0x1C32 JUMP JUMPDEST SWAP3 POP POP DUP2 SWAP1 SSTORE POP DUP1 PUSH16 0xFFFFFFFFFFFFFFFFFFFFFFFFFFFFFFFF AND PUSH1 0x4 PUSH1 0x0 DUP3 DUP3 SLOAD PUSH2 0x14CD SWAP2 SWAP1 PUSH2 0x1C32 JUMP JUMPDEST SWAP1 SWAP2 SSTORE POP POP PUSH1 0x5 SLOAD PUSH1 0x4 SLOAD GT ISZERO PUSH2 0x142F JUMPI PUSH1 0x40 MLOAD PUSH32 0x8C379A000000000000000000000000000000000000000000000000000000000 DUP2 MSTORE PUSH1 0x20 PUSH1 0x4 DUP3 ADD MSTORE PUSH1 0x27 PUSH1 0x24 DUP3 ADD MSTORE PUSH32 0x556E693A3A6465706F7369743A20746F74616C4C697175696469747920657863 PUSH1 0x44 DUP3 ADD MSTORE PUSH32 0x656564206D617800000000000000000000000000000000000000000000000000 PUSH1 0x64 DUP3 ADD MSTORE PUSH1 0x84 ADD PUSH2 0x9A1 JUMP JUMPDEST PUSH1 0x40 MLOAD PUSH32 0x8C379A000000000000000000000000000000000000000000000000000000000 DUP2 MSTORE PUSH1 0x20 PUSH1 0x4 DUP3 ADD MSTORE PUSH1 0x1F PUSH1 0x24 DUP3 ADD MSTORE PUSH32 0x556E693A3A6465706F7369743A20696D70726F70657220746F6B656E20696400 PUSH1 0x44 DUP3 ADD MSTORE PUSH1 0x64 ADD PUSH2 0x9A1 JUMP JUMPDEST CALLER PUSH1 0x0 DUP2 DUP2 MSTORE PUSH1 0x9 PUSH1 0x20 SWAP1 DUP2 MSTORE PUSH1 0x40 DUP1 DUP4 KECCAK256 DUP9 DUP5 MSTORE SWAP1 SWAP2 MSTORE SWAP1 DUP2 SWAP1 KECCAK256 TIMESTAMP SWAP1 SSTORE MLOAD PUSH32 0x23B872DD00000000000000000000000000000000000000000000000000000000 DUP2 MSTORE PUSH1 0x4 DUP2 ADD SWAP2 SWAP1 SWAP2 MSTORE ADDRESS PUSH1 0x24 DUP3 ADD MSTORE PUSH1 0x44 DUP2 ADD DUP6 SWAP1 MSTORE PUSH20 0xFFFFFFFFFFFFFFFFFFFFFFFFFFFFFFFFFFFFFFFF PUSH32 0x0 AND SWAP1 PUSH4 0x23B872DD SWAP1 PUSH1 0x64 ADD PUSH1 0x0 PUSH1 0x40 MLOAD DUP1 DUP4 SUB DUP2 PUSH1 0x0 DUP8 DUP1 EXTCODESIZE ISZERO DUP1 ISZERO PUSH2 0x167B JUMPI PUSH1 0x0 DUP1 REVERT JUMPDEST POP GAS CALL ISZERO DUP1 ISZERO PUSH2 0x168F JUMPI RETURNDATASIZE PUSH1 0x0 DUP1 RETURNDATACOPY RETURNDATASIZE PUSH1 0x0 REVERT JUMPDEST POP POP PUSH1 0x40 DUP1 MLOAD DUP8 DUP2 MSTORE CALLER PUSH1 0x20 DUP3 ADD MSTORE PUSH32 0x4BCC17093CDF51079C755DE089BE5A85E70FA374EC656C194480FBDCDA224A53 SWAP4 POP ADD SWAP1 POP PUSH1 0x40 MLOAD DUP1 SWAP2 SUB SWAP1 LOG1 POP POP POP POP JUMP JUMPDEST PUSH2 0x16DA PUSH2 0x1789 JUMP JUMPDEST PUSH20 0xFFFFFFFFFFFFFFFFFFFFFFFFFFFFFFFFFFFFFFFF DUP2 AND PUSH2 0x177D JUMPI PUSH1 0x40 MLOAD PUSH32 0x8C379A000000000000000000000000000000000000000000000000000000000 DUP2 MSTORE PUSH1 0x20 PUSH1 0x4 DUP3 ADD MSTORE PUSH1 0x26 PUSH1 0x24 DUP3 ADD MSTORE PUSH32 0x4F776E61626C653A206E6577206F776E657220697320746865207A65726F2061 PUSH1 0x44 DUP3 ADD MSTORE PUSH32 0x6464726573730000000000000000000000000000000000000000000000000000 PUSH1 0x64 DUP3 ADD MSTORE PUSH1 0x84 ADD PUSH2 0x9A1 JUMP JUMPDEST PUSH2 0x1786 DUP2 PUSH2 0x197E JUMP JUMPDEST POP JUMP JUMPDEST PUSH1 0x0 SLOAD PUSH20 0xFFFFFFFFFFFFFFFFFFFFFFFFFFFFFFFFFFFFFFFF AND CALLER EQ PUSH2 0x109D JUMPI PUSH1 0x40 MLOAD PUSH32 0x8C379A000000000000000000000000000000000000000000000000000000000 DUP2 MSTORE PUSH1 0x20 PUSH1 0x4 DUP3 ADD DUP2 SWAP1 MSTORE PUSH1 0x24 DUP3 ADD MSTORE PUSH32 0x4F776E61626C653A2063616C6C6572206973206E6F7420746865206F776E6572 PUSH1 0x44 DUP3 ADD MSTORE PUSH1 0x64 ADD PUSH2 0x9A1 JUMP JUMPDEST PUSH1 0x0 DUP1 PUSH1 0x0 PUSH32 0x0 PUSH20 0xFFFFFFFFFFFFFFFFFFFFFFFFFFFFFFFFFFFFFFFF AND PUSH4 0x99FBAB88 DUP6 PUSH1 0x40 MLOAD DUP3 PUSH4 0xFFFFFFFF AND PUSH1 0xE0 SHL DUP2 MSTORE PUSH1 0x4 ADD PUSH2 0x186A SWAP2 DUP2 MSTORE PUSH1 0x20 ADD SWAP1 JUMP JUMPDEST PUSH2 0x180 PUSH1 0x40 MLOAD DUP1 DUP4 SUB DUP2 DUP7 DUP1 EXTCODESIZE ISZERO DUP1 ISZERO PUSH2 0x1883 JUMPI PUSH1 0x0 DUP1 REVERT JUMPDEST POP GAS STATICCALL ISZERO DUP1 ISZERO PUSH2 0x1897 JUMPI RETURNDATASIZE PUSH1 0x0 DUP1 RETURNDATACOPY RETURNDATASIZE PUSH1 0x0 REVERT JUMPDEST POP POP POP POP PUSH1 0x40 MLOAD RETURNDATASIZE PUSH1 0x1F NOT PUSH1 0x1F DUP3 ADD AND DUP3 ADD DUP1 PUSH1 0x40 MSTORE POP DUP2 ADD SWAP1 PUSH2 0x18BB SWAP2 SWAP1 PUSH2 0x1CA3 JUMP JUMPDEST POP SWAP8 SWAP15 SWAP7 SWAP14 POP SWAP2 SWAP12 POP SWAP5 SWAP10 POP POP POP POP POP POP POP POP POP POP JUMP JUMPDEST PUSH1 0x0 PUSH3 0x93A80 PUSH2 0x1902 PUSH32 0x0 TIMESTAMP PUSH2 0x1B9B JUMP JUMPDEST PUSH2 0x190C SWAP2 SWAP1 PUSH2 0x1BE1 JUMP JUMPDEST PUSH1 0x0 DUP2 DUP2 MSTORE PUSH1 0x6 PUSH1 0x20 MSTORE PUSH1 0x40 SWAP1 KECCAK256 SLOAD SWAP1 SWAP2 POP ISZERO DUP1 ISZERO PUSH2 0x192D JUMPI POP PUSH1 0x0 PUSH1 0x7 SLOAD GT JUMPDEST ISZERO PUSH2 0x1945 JUMPI PUSH1 0x7 SLOAD PUSH1 0x0 DUP3 DUP2 MSTORE PUSH1 0x6 PUSH1 0x20 MSTORE PUSH1 0x40 SWAP1 KECCAK256 SSTORE JUMPDEST PUSH1 0x0 DUP2 DUP2 MSTORE PUSH1 0x3 PUSH1 0x20 MSTORE PUSH1 0x40 SWAP1 KECCAK256 SLOAD ISZERO DUP1 ISZERO PUSH2 0x1963 JUMPI POP PUSH1 0x0 PUSH1 0x4 SLOAD GT JUMPDEST ISZERO PUSH2 0x197B JUMPI PUSH1 0x4 SLOAD PUSH1 0x0 DUP3 DUP2 MSTORE PUSH1 0x3 PUSH1 0x20 MSTORE PUSH1 0x40 SWAP1 KECCAK256 SSTORE JUMPDEST SWAP1 JUMP JUMPDEST PUSH1 0x0 DUP1 SLOAD PUSH20 0xFFFFFFFFFFFFFFFFFFFFFFFFFFFFFFFFFFFFFFFF DUP4 DUP2 AND PUSH32 0xFFFFFFFFFFFFFFFFFFFFFFFF0000000000000000000000000000000000000000 DUP4 AND DUP2 OR DUP5 SSTORE PUSH1 0x40 MLOAD SWAP2 SWAP1 SWAP3 AND SWAP3 DUP4 SWAP2 PUSH32 0x8BE0079C531659141344CD1FD0A4F28419497F9722A3DAAFE3B4186F6B6457E0 SWAP2 SWAP1 LOG3 POP POP JUMP JUMPDEST PUSH20 0xFFFFFFFFFFFFFFFFFFFFFFFFFFFFFFFFFFFFFFFF DUP2 AND DUP2 EQ PUSH2 0x1786 JUMPI PUSH1 0x0 DUP1 REVERT JUMPDEST PUSH1 0x0 DUP1 PUSH1 0x0 DUP1 PUSH1 0x0 PUSH1 0x80 DUP7 DUP9 SUB SLT ISZERO PUSH2 0x1A2D JUMPI PUSH1 0x0 DUP1 REVERT JUMPDEST DUP6 CALLDATALOAD PUSH2 0x1A38 DUP2 PUSH2 0x19F3 JUMP JUMPDEST SWAP5 POP PUSH1 0x20 DUP7 ADD CALLDATALOAD PUSH2 0x1A48 DUP2 PUSH2 0x19F3 JUMP JUMPDEST SWAP4 POP PUSH1 0x40 DUP7 ADD CALLDATALOAD SWAP3 POP PUSH1 0x60 DUP7 ADD CALLDATALOAD PUSH8 0xFFFFFFFFFFFFFFFF DUP1 DUP3 GT ISZERO PUSH2 0x1A6C JUMPI PUSH1 0x0 DUP1 REVERT JUMPDEST DUP2 DUP9 ADD SWAP2 POP DUP9 PUSH1 0x1F DUP4 ADD SLT PUSH2 0x1A80 JUMPI PUSH1 0x0 DUP1 REVERT JUMPDEST DUP2 CALLDATALOAD DUP2 DUP2 GT ISZERO PUSH2 0x1A8F JUMPI PUSH1 0x0 DUP1 REVERT JUMPDEST DUP10 PUSH1 0x20 DUP3 DUP6 ADD ADD GT ISZERO PUSH2 0x1AA1 JUMPI PUSH1 0x0 DUP1 REVERT JUMPDEST SWAP7 SWAP10 SWAP6 SWAP9 POP SWAP4 SWAP7 POP PUSH1 0x20 ADD SWAP5 SWAP4 SWAP3 POP POP POP JUMP JUMPDEST PUSH1 0x0 PUSH1 0x20 DUP3 DUP5 SUB SLT ISZERO PUSH2 0x1AC6 JUMPI PUSH1 0x0 DUP1 REVERT JUMPDEST POP CALLDATALOAD SWAP2 SWAP1 POP JUMP JUMPDEST PUSH1 0x0 DUP1 PUSH1 0x40 DUP4 DUP6 SUB SLT ISZERO PUSH2 0x1AE0 JUMPI PUSH1 0x0 DUP1 REVERT JUMPDEST DUP3 CALLDATALOAD PUSH2 0x1AEB DUP2 PUSH2 0x19F3 JUMP JUMPDEST SWAP5 PUSH1 0x20 SWAP4 SWAP1 SWAP4 ADD CALLDATALOAD SWAP4 POP POP POP JUMP JUMPDEST PUSH1 0x0 PUSH1 0x20 DUP3 DUP5 SUB SLT ISZERO PUSH2 0x1B0B JUMPI PUSH1 0x0 DUP1 REVERT JUMPDEST DUP2 CALLDATALOAD PUSH2 0x1B16 DUP2 PUSH2 0x19F3 JUMP JUMPDEST SWAP4 SWAP3 POP POP POP JUMP JUMPDEST DUP1 MLOAD PUSH2 0x1B28 DUP2 PUSH2 0x19F3 JUMP JUMPDEST SWAP2 SWAP1 POP JUMP JUMPDEST PUSH1 0x0 PUSH1 0x20 DUP3 DUP5 SUB SLT ISZERO PUSH2 0x1B3F JUMPI PUSH1 0x0 DUP1 REVERT JUMPDEST DUP2 MLOAD PUSH2 0x1B16 DUP2 PUSH2 0x19F3 JUMP JUMPDEST PUSH1 0x0 PUSH1 0x20 DUP3 DUP5 SUB SLT ISZERO PUSH2 0x1B5C JUMPI PUSH1 0x0 DUP1 REVERT JUMPDEST DUP2 MLOAD DUP1 ISZERO ISZERO DUP2 EQ PUSH2 0x1B16 JUMPI PUSH1 0x0 DUP1 REVERT JUMPDEST PUSH32 0x4E487B7100000000000000000000000000000000000000000000000000000000 PUSH1 0x0 MSTORE PUSH1 0x11 PUSH1 0x4 MSTORE PUSH1 0x24 PUSH1 0x0 REVERT JUMPDEST PUSH1 0x0 DUP3 DUP3 LT ISZERO PUSH2 0x1BAD JUMPI PUSH2 0x1BAD PUSH2 0x1B6C JUMP JUMPDEST POP SUB SWAP1 JUMP JUMPDEST PUSH32 0x4E487B7100000000000000000000000000000000000000000000000000000000 PUSH1 0x0 MSTORE PUSH1 0x12 PUSH1 0x4 MSTORE PUSH1 0x24 PUSH1 0x0 REVERT JUMPDEST PUSH1 0x0 DUP3 PUSH2 0x1BF0 JUMPI PUSH2 0x1BF0 PUSH2 0x1BB2 JUMP JUMPDEST POP DIV SWAP1 JUMP JUMPDEST PUSH1 0x0 DUP2 PUSH32 0xFFFFFFFFFFFFFFFFFFFFFFFFFFFFFFFFFFFFFFFFFFFFFFFFFFFFFFFFFFFFFFFF DIV DUP4 GT DUP3 ISZERO ISZERO AND ISZERO PUSH2 0x1C2D JUMPI PUSH2 0x1C2D PUSH2 0x1B6C JUMP JUMPDEST POP MUL SWAP1 JUMP JUMPDEST PUSH1 0x0 DUP3 NOT DUP3 GT ISZERO PUSH2 0x1C45 JUMPI PUSH2 0x1C45 PUSH2 0x1B6C JUMP JUMPDEST POP ADD SWAP1 JUMP JUMPDEST PUSH1 0x0 DUP3 PUSH2 0x1C59 JUMPI PUSH2 0x1C59 PUSH2 0x1BB2 JUMP JUMPDEST POP MOD SWAP1 JUMP JUMPDEST DUP1 MLOAD PUSH3 0xFFFFFF DUP2 AND DUP2 EQ PUSH2 0x1B28 JUMPI PUSH1 0x0 DUP1 REVERT JUMPDEST DUP1 MLOAD PUSH1 0x2 DUP2 SWAP1 SIGNEXTEND DUP2 EQ PUSH2 0x1B28 JUMPI PUSH1 0x0 DUP1 REVERT JUMPDEST DUP1 MLOAD PUSH16 0xFFFFFFFFFFFFFFFFFFFFFFFFFFFFFFFF DUP2 AND DUP2 EQ PUSH2 0x1B28 JUMPI PUSH1 0x0 DUP1 REVERT JUMPDEST PUSH1 0x0 DUP1 PUSH1 0x0 DUP1 PUSH1 0x0 DUP1 PUSH1 0x0 DUP1 PUSH1 0x0 DUP1 PUSH1 0x0 DUP1 PUSH2 0x180 DUP14 DUP16 SUB SLT ISZERO PUSH2 0x1CC6 JUMPI PUSH1 0x0 DUP1 REVERT JUMPDEST DUP13 MLOAD PUSH12 0xFFFFFFFFFFFFFFFFFFFFFFFF DUP2 AND DUP2 EQ PUSH2 0x1CE2 JUMPI PUSH1 0x0 DUP1 REVERT JUMPDEST SWAP12 POP PUSH2 0x1CF0 PUSH1 0x20 DUP15 ADD PUSH2 0x1B1D JUMP JUMPDEST SWAP11 POP PUSH2 0x1CFE PUSH1 0x40 DUP15 ADD PUSH2 0x1B1D JUMP JUMPDEST SWAP10 POP PUSH2 0x1D0C PUSH1 0x60 DUP15 ADD PUSH2 0x1B1D JUMP JUMPDEST SWAP9 POP PUSH2 0x1D1A PUSH1 0x80 DUP15 ADD PUSH2 0x1C5E JUMP JUMPDEST SWAP8 POP PUSH2 0x1D28 PUSH1 0xA0 DUP15 ADD PUSH2 0x1C71 JUMP JUMPDEST SWAP7 POP PUSH2 0x1D36 PUSH1 0xC0 DUP15 ADD PUSH2 0x1C71 JUMP JUMPDEST SWAP6 POP PUSH2 0x1D44 PUSH1 0xE0 DUP15 ADD PUSH2 0x1C83 JUMP JUMPDEST SWAP5 POP PUSH2 0x100 DUP14 ADD MLOAD SWAP4 POP PUSH2 0x120 DUP14 ADD MLOAD SWAP3 POP PUSH2 0x1D63 PUSH2 0x140 DUP15 ADD PUSH2 0x1C83 JUMP JUMPDEST SWAP2 POP PUSH2 0x1D72 PUSH2 0x160 DUP15 ADD PUSH2 0x1C83 JUMP JUMPDEST SWAP1 POP SWAP3 SWAP6 SWAP9 SWAP12 POP SWAP3 SWAP6 SWAP9 SWAP12 POP SWAP3 SWAP6 SWAP9 SWAP12 JUMP INVALID LOG1 PUSH5 0x736F6C6343 STOP ADDMOD ADDMOD STOP EXP "},"methodIdentifiers":{"deployed()":"f905c15a","deposit(uint256)":"b6b55f25","depositTimestamps(address,uint256)":"727462e5","maxTotalUSDT()":"5769a626","maxTotalWETH()":"d10b4f25","minLock()":"f037c630","nonfungiblePositionManager()":"b44a2722","onERC721Received(address,address,uint256,bytes)":"150b7a02","owner()":"8da5cb5b","renounceOwnership()":"715018a6","reward()":"228cb733","sdai()":"5b2eeca4","setMaxTotalUSDT(uint256)":"54c77e0d","setMaxTotalWETH(uint256)":"a1afb98f","setMinLock(uint256)":"aa15af6a","setReward(uint256)":"293be456","totalLiquidityUSDT()":"a0440e55","totalLiquidityWETH()":"4e03c48f","totalsUSDT(uint256)":"e95af58c","totalsWETH(uint256)":"d0f2dfaf","transferOwnership(address)":"f2fde38b","weth()":"3fc8cef3","withdrawToken(uint256)":"50baa622"}}}}}