{
  "_format": "hh-sol-artifact-1",
  "contractName": "Lotto",
  "sourceName": "contracts/Lotto.sol",
  "abi": [
    {
      "inputs": [
        {
          "internalType": "address",
          "name": "_vrfCoordinator",
          "type": "address"
        },
        {
          "internalType": "address",
          "name": "_link_token",
          "type": "address"
        },
        {
          "internalType": "bytes32",
          "name": "_hash",
          "type": "bytes32"
        },
        {
          "internalType": "uint32",
          "name": "_limit",
          "type": "uint32"
        },
        {
          "internalType": "uint16",
          "name": "_confirm",
          "type": "uint16"
        }
      ],
      "stateMutability": "nonpayable",
      "type": "constructor"
    },
    {
      "inputs": [
        {
          "internalType": "address",
          "name": "have",
          "type": "address"
        },
        {
          "internalType": "address",
          "name": "want",
          "type": "address"
        }
      ],
      "name": "OnlyCoordinatorCanFulfill",
      "type": "error"
    },
    {
      "anonymous": false,
      "inputs": [
        {
          "indexed": false,
          "internalType": "uint256",
          "name": "tokenId",
          "type": "uint256"
        },
        {
          "indexed": false,
          "internalType": "address",
          "name": "owner",
          "type": "address"
        }
      ],
      "name": "Deposit",
      "type": "event"
    },
    {
      "anonymous": false,
      "inputs": [
        {
          "indexed": true,
          "internalType": "address",
          "name": "sender",
          "type": "address"
        },
        {
          "indexed": false,
          "internalType": "uint256",
          "name": "amount",
          "type": "uint256"
        },
        {
          "indexed": false,
          "internalType": "uint256",
          "name": "balance",
          "type": "uint256"
        }
      ],
      "name": "DepositETH",
      "type": "event"
    },
    {
      "anonymous": false,
      "inputs": [
        {
          "indexed": true,
          "internalType": "address",
          "name": "previousOwner",
          "type": "address"
        },
        {
          "indexed": true,
          "internalType": "address",
          "name": "newOwner",
          "type": "address"
        }
      ],
      "name": "OwnershipTransferred",
      "type": "event"
    },
    {
      "anonymous": false,
      "inputs": [
        {
          "indexed": false,
          "internalType": "uint256",
          "name": "requestId",
          "type": "uint256"
        }
      ],
      "name": "RequestedRandomness",
      "type": "event"
    },
    {
      "anonymous": false,
      "inputs": [
        {
          "indexed": false,
          "internalType": "uint256",
          "name": "maxTotal",
          "type": "uint256"
        }
      ],
      "name": "SetMaxTotalUSDT",
      "type": "event"
    },
    {
      "anonymous": false,
      "inputs": [
        {
          "indexed": false,
          "internalType": "uint256",
          "name": "maxTotal",
          "type": "uint256"
        }
      ],
      "name": "SetMaxTotalWETH",
      "type": "event"
    },
    {
      "anonymous": false,
      "inputs": [
        {
          "indexed": false,
          "internalType": "uint256",
          "name": "duration",
          "type": "uint256"
        }
      ],
      "name": "SetMinLock",
      "type": "event"
    },
    {
      "anonymous": false,
      "inputs": [
        {
          "indexed": false,
          "internalType": "uint256",
          "name": "reward",
          "type": "uint256"
        }
      ],
      "name": "SetReward",
      "type": "event"
    },
    {
      "anonymous": false,
      "inputs": [
        {
          "indexed": false,
          "internalType": "uint256",
          "name": "tokenId",
          "type": "uint256"
        },
        {
          "indexed": false,
          "internalType": "address",
          "name": "owner",
          "type": "address"
        },
        {
          "indexed": false,
          "internalType": "uint256",
          "name": "rewardPaid",
          "type": "uint256"
        }
      ],
      "name": "Withdrawal",
      "type": "event"
    },
    {
      "inputs": [],
      "name": "deployed",
      "outputs": [
        {
          "internalType": "uint256",
          "name": "",
          "type": "uint256"
        }
      ],
      "stateMutability": "view",
      "type": "function"
    },
    {
      "inputs": [
        {
          "internalType": "uint256",
          "name": "tokenId",
          "type": "uint256"
        }
      ],
      "name": "deposit",
      "outputs": [],
      "stateMutability": "nonpayable",
      "type": "function"
    },
    {
      "inputs": [
        {
          "internalType": "address",
          "name": "",
          "type": "address"
        },
        {
          "internalType": "uint256",
          "name": "",
          "type": "uint256"
        }
      ],
      "name": "depositTimestamps",
      "outputs": [
        {
          "internalType": "uint256",
          "name": "",
          "type": "uint256"
        }
      ],
      "stateMutability": "view",
      "type": "function"
    },
    {
      "inputs": [],
      "name": "liquidityUSDT",
      "outputs": [
        {
          "internalType": "uint256",
          "name": "",
          "type": "uint256"
        }
      ],
      "stateMutability": "view",
      "type": "function"
    },
    {
      "inputs": [],
      "name": "liquidityWETH",
      "outputs": [
        {
          "internalType": "uint256",
          "name": "",
          "type": "uint256"
        }
      ],
      "stateMutability": "view",
      "type": "function"
    },
    {
      "inputs": [],
      "name": "maxTotalUSDT",
      "outputs": [
        {
          "internalType": "uint256",
          "name": "",
          "type": "uint256"
        }
      ],
      "stateMutability": "view",
      "type": "function"
    },
    {
      "inputs": [],
      "name": "maxTotalWETH",
      "outputs": [
        {
          "internalType": "uint256",
          "name": "",
          "type": "uint256"
        }
      ],
      "stateMutability": "view",
      "type": "function"
    },
    {
      "inputs": [],
      "name": "minLock",
      "outputs": [
        {
          "internalType": "uint256",
          "name": "",
          "type": "uint256"
        }
      ],
      "stateMutability": "view",
      "type": "function"
    },
    {
      "inputs": [],
      "name": "nonfungiblePositionManager",
      "outputs": [
        {
          "internalType": "contract INonfungiblePositionManager",
          "name": "",
          "type": "address"
        }
      ],
      "stateMutability": "view",
      "type": "function"
    },
    {
      "inputs": [
        {
          "internalType": "address",
          "name": "",
          "type": "address"
        },
        {
          "internalType": "address",
          "name": "from",
          "type": "address"
        },
        {
          "internalType": "uint256",
          "name": "tokenId",
          "type": "uint256"
        },
        {
          "internalType": "bytes",
          "name": "data",
          "type": "bytes"
        }
      ],
      "name": "onERC721Received",
      "outputs": [
        {
          "internalType": "bytes4",
          "name": "",
          "type": "bytes4"
        }
      ],
      "stateMutability": "nonpayable",
      "type": "function"
    },
    {
      "inputs": [],
      "name": "owner",
      "outputs": [
        {
          "internalType": "address",
          "name": "",
          "type": "address"
        }
      ],
      "stateMutability": "view",
      "type": "function"
    },
    {
      "inputs": [
        {
          "internalType": "uint256",
          "name": "requestId",
          "type": "uint256"
        },
        {
          "internalType": "uint256[]",
          "name": "randomWords",
          "type": "uint256[]"
        }
      ],
      "name": "rawFulfillRandomWords",
      "outputs": [],
      "stateMutability": "nonpayable",
      "type": "function"
    },
    {
      "inputs": [],
      "name": "recentWinner",
      "outputs": [
        {
          "internalType": "address",
          "name": "",
          "type": "address"
        }
      ],
      "stateMutability": "view",
      "type": "function"
    },
    {
      "inputs": [],
      "name": "renounceOwnership",
      "outputs": [],
      "stateMutability": "nonpayable",
      "type": "function"
    },
    {
      "inputs": [],
      "name": "requestId",
      "outputs": [
        {
          "internalType": "uint256",
          "name": "",
          "type": "uint256"
        }
      ],
      "stateMutability": "view",
      "type": "function"
    },
    {
      "inputs": [],
      "name": "reward",
      "outputs": [
        {
          "internalType": "uint256",
          "name": "",
          "type": "uint256"
        }
      ],
      "stateMutability": "view",
      "type": "function"
    },
    {
      "inputs": [],
      "name": "sdai",
      "outputs": [
        {
          "internalType": "contract IERC20",
          "name": "",
          "type": "address"
        }
      ],
      "stateMutability": "view",
      "type": "function"
    },
    {
      "inputs": [
        {
          "internalType": "uint256",
          "name": "_newMaxTotalUSDT",
          "type": "uint256"
        }
      ],
      "name": "setMaxTotalUSDT",
      "outputs": [],
      "stateMutability": "nonpayable",
      "type": "function"
    },
    {
      "inputs": [
        {
          "internalType": "uint256",
          "name": "_newMaxTotalWETH",
          "type": "uint256"
        }
      ],
      "name": "setMaxTotalWETH",
      "outputs": [],
      "stateMutability": "nonpayable",
      "type": "function"
    },
    {
      "inputs": [
        {
          "internalType": "uint256",
          "name": "_newMinLock",
          "type": "uint256"
        }
      ],
      "name": "setMinLock",
      "outputs": [],
      "stateMutability": "nonpayable",
      "type": "function"
    },
    {
      "inputs": [
        {
          "internalType": "uint256",
          "name": "_newReward",
          "type": "uint256"
        }
      ],
      "name": "setReward",
      "outputs": [],
      "stateMutability": "nonpayable",
      "type": "function"
    },
    {
      "inputs": [],
      "name": "subscriptionId",
      "outputs": [
        {
          "internalType": "uint64",
          "name": "",
          "type": "uint64"
        }
      ],
      "stateMutability": "view",
      "type": "function"
    },
    {
      "inputs": [
        {
          "internalType": "uint256",
          "name": "",
          "type": "uint256"
        }
      ],
      "name": "totalsUSDT",
      "outputs": [
        {
          "internalType": "uint256",
          "name": "",
          "type": "uint256"
        }
      ],
      "stateMutability": "view",
      "type": "function"
    },
    {
      "inputs": [
        {
          "internalType": "uint256",
          "name": "",
          "type": "uint256"
        }
      ],
      "name": "totalsWETH",
      "outputs": [
        {
          "internalType": "uint256",
          "name": "",
          "type": "uint256"
        }
      ],
      "stateMutability": "view",
      "type": "function"
    },
    {
      "inputs": [
        {
          "internalType": "address",
          "name": "newOwner",
          "type": "address"
        }
      ],
      "name": "transferOwnership",
      "outputs": [],
      "stateMutability": "nonpayable",
      "type": "function"
    },
    {
      "inputs": [],
      "name": "weth",
      "outputs": [
        {
          "internalType": "contract IERC20",
          "name": "",
          "type": "address"
        }
      ],
      "stateMutability": "view",
      "type": "function"
    },
    {
      "inputs": [
        {
          "internalType": "uint256",
          "name": "tokenId",
          "type": "uint256"
        }
      ],
      "name": "withdraw",
      "outputs": [],
      "stateMutability": "nonpayable",
      "type": "function"
    },
    {
      "stateMutability": "payable",
      "type": "receive"
    }
  ],
  "bytecode": "0x6101206040523480156200001257600080fd5b5060405162002afa38038062002afa83398101604081905262000035916200039f565b606085901b6001600160601b031916608052620000523362000332565b600680547b42cc020ef5e9681364abb5aba26f39626f1874a400000000000000006001600160401b03909116600160e01b63ffffffff861602171790556007805461ffff191661ffff831617905564e8d4a51000600255600a546040805163320793e560e11b815290516001600160a01b039092169163640f27ca91600481810192602092909190829003018186803b158015620000ef57600080fd5b505afa15801562000104573d6000803e3d6000fd5b505050506040513d601f19601f820116820180604052508101906200012a91906200041b565b60019081556005849055620001429060001962000435565b60105562000154600160001962000435565b600d55600480546001600160a01b038681166001600160a01b03199283161783557fc02aaa39b223fe8d0a0e5c4f27ead9083c756cc200000000000000000000000060c0527f83f20f44975d03b1b09e64809b757c47f942beea00000000000000000000000060e0524260a052600a805483167342cc020ef5e9681364abb5aba26f39626f1874a417905560038054918916919092168117909155600654604051631cd0704360e21b81526001600160401b039091169281019290925230602483015290637341c10c90604401600060405180830381600087803b1580156200023c57600080fd5b505af115801562000251573d6000803e3d6000fd5b50505050600360009054906101000a90046001600160a01b03166001600160a01b031663a21a23e46040518163ffffffff1660e01b8152600401602060405180830381600087803b158015620002a657600080fd5b505af1158015620002bb573d6000803e3d6000fd5b505050506040513d601f19601f82011682018060405250810190620002e191906200045b565b600680546001600160401b0319166001600160401b039290921691909117905550507fc36442b4a4522e871399cd717abdd847ab11fe8800000000000000000000000061010052506200048d915050565b600080546001600160a01b038381166001600160a01b0319831681178455604051919092169283917f8be0079c531659141344cd1fd0a4f28419497f9722a3daafe3b4186f6b6457e09190a35050565b80516001600160a01b03811681146200039a57600080fd5b919050565b600080600080600060a08688031215620003b857600080fd5b620003c38662000382565b9450620003d36020870162000382565b935060408601519250606086015163ffffffff81168114620003f457600080fd5b608087015190925061ffff811681146200040d57600080fd5b809150509295509295909350565b6000602082840312156200042e57600080fd5b5051919050565b6000828210156200045657634e487b7160e01b600052601160045260246000fd5b500390565b6000602082840312156200046e57600080fd5b81516001600160401b03811681146200048657600080fd5b9392505050565b60805160601c60a05160c05160601c60e05160601c6101005160601c6125cf6200052b600039600081816104fd015281816111d3015281816118790152611e29015260008181610411015261089301526000818161034901526110b601526000818161060d01528181610cb401528181610cf401528181610e0e01528181610f880152611ef5015260008181610a720152610ada01526125cf6000f3fe6080604052600436106101af5760003560e01c8063715018a6116100ec578063cdac5f7c1161008a578063e95af58c11610064578063e95af58c14610598578063f037c630146105c5578063f2fde38b146105db578063f905c15a146105fb57600080fd5b8063cdac5f7c1461053f578063d0f2dfaf14610555578063d10b4f251461058257600080fd5b8063a1afb98f116100c6578063a1afb98f146104ab578063aa15af6a146104cb578063b44a2722146104eb578063b6b55f251461051f57600080fd5b8063715018a614610433578063727462e5146104485780638da5cb5b1461048057600080fd5b80632e1a7d4d116101595780634f8c70cf116101335780634f8c70cf1461039057806354c77e0d146103c95780635769a626146103e95780635b2eeca4146103ff57600080fd5b80632e1a7d4d1461030157806333fe4ffb146103215780633fc8cef31461033757600080fd5b80631fe543e31161018a5780631fe543e3146102a9578063228cb733146102cb578063293be456146102e157600080fd5b80626d6cae146101f557806309c1ba2e1461021e578063150b7a021461025857600080fd5b366101f0576040805134815247602082015233917f57e8e547a3ef8d890c570ca885b0a8c441be3070e36b7ad4c7d6b9d9316ff2ce910160405180910390a2005b600080fd5b34801561020157600080fd5b5061020b60085481565b6040519081526020015b60405180910390f35b34801561022a57600080fd5b5060065461023f9067ffffffffffffffff1681565b60405167ffffffffffffffff9091168152602001610215565b34801561026457600080fd5b5061027861027336600461202d565b61062f565b6040517fffffffff000000000000000000000000000000000000000000000000000000009091168152602001610215565b3480156102b557600080fd5b506102c96102c436600461216e565b610a5a565b005b3480156102d757600080fd5b5061020b60025481565b3480156102ed57600080fd5b506102c96102fc366004612210565b610b15565b34801561030d57600080fd5b506102c961031c366004612210565b610b59565b34801561032d57600080fd5b5061020b600f5481565b34801561034357600080fd5b5061036b7f000000000000000000000000000000000000000000000000000000000000000081565b60405173ffffffffffffffffffffffffffffffffffffffff9091168152602001610215565b34801561039c57600080fd5b5060065461036b9068010000000000000000900473ffffffffffffffffffffffffffffffffffffffff1681565b3480156103d557600080fd5b506102c96103e4366004612210565b611290565b3480156103f557600080fd5b5061020b600d5481565b34801561040b57600080fd5b5061036b7f000000000000000000000000000000000000000000000000000000000000000081565b34801561043f57600080fd5b506102c96112cd565b34801561045457600080fd5b5061020b610463366004612229565b601160209081526000928352604080842090915290825290205481565b34801561048c57600080fd5b5060005473ffffffffffffffffffffffffffffffffffffffff1661036b565b3480156104b757600080fd5b506102c96104c6366004612210565b6112e1565b3480156104d757600080fd5b506102c96104e6366004612210565b61131e565b3480156104f757600080fd5b5061036b7f000000000000000000000000000000000000000000000000000000000000000081565b34801561052b57600080fd5b506102c961053a366004612210565b6113f5565b34801561054b57600080fd5b5061020b600c5481565b34801561056157600080fd5b5061020b610570366004612210565b600e6020526000908152604090205481565b34801561058e57600080fd5b5061020b60105481565b3480156105a457600080fd5b5061020b6105b3366004612210565b600b6020526000908152604090205481565b3480156105d157600080fd5b5061020b60015481565b3480156105e757600080fd5b506102c96105f6366004612255565b611914565b34801561060757600080fd5b5061020b7f000000000000000000000000000000000000000000000000000000000000000081565b60065460009073ffffffffffffffffffffffffffffffffffffffff8681166801000000000000000090920416146106c7576040517f08c379a000000000000000000000000000000000000000000000000000000000815260206004820152600c60248201527f756e617574686f7269736564000000000000000000000000000000000000000060448201526064015b60405180910390fd5b600061407c90506000730299cb33919dda82c72864f7ed7314a3205fb8c473ffffffffffffffffffffffffffffffffffffffff16638c0e83496040518163ffffffff1660e01b815260040160206040518083038186803b15801561072a57600080fd5b505afa15801561073e573d6000803e3d6000fd5b505050506040513d601f19601f820116820180604052508101906107629190612279565b9050818614801561083957506040517f6352211e00000000000000000000000000000000000000000000000000000000815260048101839052733b3ee1931dc30c1957379fac9aba94d1c48a540590636352211e9060240160206040518083038186803b1580156107d257600080fd5b505afa1580156107e6573d6000803e3d6000fd5b505050506040513d601f19601f8201168201806040525081019061080a91906122a2565b73ffffffffffffffffffffffffffffffffffffffff163073ffffffffffffffffffffffffffffffffffffffff16145b15610915576040517fa9059cbb00000000000000000000000000000000000000000000000000000000815273ffffffffffffffffffffffffffffffffffffffff88811660048301526980d3273c352cd1d8000060248301527f0000000000000000000000000000000000000000000000000000000000000000169063a9059cbb90604401602060405180830381600087803b1580156108d757600080fd5b505af11580156108eb573d6000803e3d6000fd5b505050506040513d601f19601f8201168201806040525081019061090f91906122bf565b50610a4f565b80861415610a4f576003546005546006546007546040517f5d3b1d30000000000000000000000000000000000000000000000000000000008152600481019390935267ffffffffffffffff8216602484015261ffff1660448301527c0100000000000000000000000000000000000000000000000000000000900463ffffffff1660648201526001608482015273ffffffffffffffffffffffffffffffffffffffff90911690635d3b1d309060a401602060405180830381600087803b1580156109de57600080fd5b505af11580156109f2573d6000803e3d6000fd5b505050506040513d601f19601f82011682018060405250810190610a169190612279565b60088190556040519081527f5d7d0431c4991fcc9f63f03ad0ead4128b866a8ed115a818b6d87a3afedb72649060200160405180910390a15b505095945050505050565b3373ffffffffffffffffffffffffffffffffffffffff7f00000000000000000000000000000000000000000000000000000000000000001614610b07576040517f1cf993f400000000000000000000000000000000000000000000000000000000815233600482015273ffffffffffffffffffffffffffffffffffffffff7f00000000000000000000000000000000000000000000000000000000000000001660248201526044016106be565b610b1182826119cb565b5050565b610b1d611da1565b60028190556040518181527fb0864f3dd8e8d4f8f298a778d03bccfb0bc1114b8e89b686ae5a58c7d78a5875906020015b60405180910390a150565b33600090815260116020908152604080832084845290915290205480610c01576040517f08c379a000000000000000000000000000000000000000000000000000000000815260206004820152603060248201527f4c6f636b3a3a77697468647261773a206e6f206f776e6572206578697374732060448201527f666f72207468697320746f6b656e49640000000000000000000000000000000060648201526084016106be565b600154610c0e8242612310565b11610c9b576040517f08c379a000000000000000000000000000000000000000000000000000000000815260206004820152602f60248201527f4c6f636b3a3a77697468647261773a206d696e206475726174696f6e2068617360448201527f6e277420656c617073656420796574000000000000000000000000000000000060648201526084016106be565b600080610ca784611e22565b9250509150600062093a807f000000000000000000000000000000000000000000000000000000000000000085610cde9190612310565b610ce89190612356565b90506000610e10610d197f000000000000000000000000000000000000000000000000000000000000000087612310565b610d239190612356565b90506000610d328360a861236a565b610d3c9083612310565b9050600060a860025483610d50919061236a565b610d5a9190612356565b9050600073ffffffffffffffffffffffffffffffffffffffff871673c02aaa39b223fe8d0a0e5c4f27ead9083c756cc21415610ed8576000610d9a611eea565b90505b80861015610e06576000868152600e60205260409020548015610dee5780610dd76fffffffffffffffffffffffffffffffff8a168661236a565b610de19190612356565b610deb90846123a7565b92505b610df96001886123a7565b9650600254935050610d9d565b610e10610e337f000000000000000000000000000000000000000000000000000000000000000042612310565b610e3d9190612356565b9450610e4a8160a861236a565b610e549086612310565b935060a860025485610e66919061236a565b610e709190612356565b600f54909350610e926fffffffffffffffffffffffffffffffff89168561236a565b610e9c9190612356565b610ea690836123a7565b9150866fffffffffffffffffffffffffffffffff16600f6000828254610ecc9190612310565b9091555061104d915050565b73ffffffffffffffffffffffffffffffffffffffff871673a0b86991c6218b36c1d19d4a2e9eb0ce3606eb48141561104d576000610f14611eea565b90505b80861015610f80576000868152600b60205260409020548015610f685780610f516fffffffffffffffffffffffffffffffff8a168661236a565b610f5b9190612356565b610f6590846123a7565b92505b610f736001886123a7565b9650600254935050610f17565b610e10610fad7f000000000000000000000000000000000000000000000000000000000000000042612310565b610fb79190612356565b9450610fc48160a861236a565b610fce9086612310565b935060a860025485610fe0919061236a565b610fea9190612356565b600c5490935061100c6fffffffffffffffffffffffffffffffff89168561236a565b6110169190612356565b61102090836123a7565b9150866fffffffffffffffffffffffffffffffff16600c60008282546110469190612310565b9091555050505b3360008181526011602090815260408083208d845290915280822091909155517fa9059cbb00000000000000000000000000000000000000000000000000000000815260048101919091526024810182905273ffffffffffffffffffffffffffffffffffffffff7f0000000000000000000000000000000000000000000000000000000000000000169063a9059cbb90604401602060405180830381600087803b1580156110fa57600080fd5b505af115801561110e573d6000803e3d6000fd5b505050506040513d601f19601f8201168201806040525081019061113291906122bf565b611198576040517f08c379a000000000000000000000000000000000000000000000000000000000815260206004820152601f60248201527f4c6f636b3a3a77697468647261773a207472616e73666572206661696c65640060448201526064016106be565b6040517f23b872dd000000000000000000000000000000000000000000000000000000008152306004820152336024820152604481018a90527f000000000000000000000000000000000000000000000000000000000000000073ffffffffffffffffffffffffffffffffffffffff16906323b872dd90606401600060405180830381600087803b15801561122c57600080fd5b505af1158015611240573d6000803e3d6000fd5b5050604080518c81523360208201529081018490527f37e8063b72a944a76de602f32b82fd8c2a1c6f99564c727ffaf913c7762cd4209250606001905060405180910390a1505050505050505050565b611298611da1565b600d8190556040518181527f203660ce3477c154f3838acb95842f88e336c3f91558171fba4a73c98dfd46de90602001610b4e565b6112d5611da1565b6112df6000611f96565b565b6112e9611da1565b60108190556040518181527f4ae6cf43c6b8013bb016c10cb65b01c7ad2f82f83711c9b8b4cff8c491024e7290602001610b4e565b611326611da1565b61133362093a80826123bf565b156113c0576040517f08c379a000000000000000000000000000000000000000000000000000000000815260206004820152602160248201527f556e693a3a7365744d696e4c6f636b3a206d75737420626520696e207765656b60448201527f730000000000000000000000000000000000000000000000000000000000000060648201526084016106be565b60018190556040518181527fabb05374bb45ebfef33afb21ec5aa52333708d8217fd8e5c0616efd2530b214590602001610b4e565b600080600061140384611e22565b9194509250905073ffffffffffffffffffffffffffffffffffffffff82167342cc020ef5e9681364abb5aba26f39626f1874a41461149d576040517f08c379a000000000000000000000000000000000000000000000000000000000815260206004820152601f60248201527f556e693a3a6465706f7369743a20696d70726f70657220746f6b656e2069640060448201526064016106be565b6000816fffffffffffffffffffffffffffffffff161161153f576040517f08c379a000000000000000000000000000000000000000000000000000000000815260206004820152602960248201527f556e693a3a6465706f7369743a2063616e6e6f74206465706f73697420656d7060448201527f747920616d6f756e74000000000000000000000000000000000000000000000060648201526084016106be565b73ffffffffffffffffffffffffffffffffffffffff831673c02aaa39b223fe8d0a0e5c4f27ead9083c756cc2141561167657806fffffffffffffffffffffffffffffffff16600e6000611590611eea565b815260200190815260200160002060008282546115ad91906123a7565b92505081905550806fffffffffffffffffffffffffffffffff16600f60008282546115d891906123a7565b9091555050601054600f541115611671576040517f08c379a000000000000000000000000000000000000000000000000000000000815260206004820152602760248201527f556e693a3a6465706f7369743a20746f74616c4c69717569646974792065786360448201527f656564206d61780000000000000000000000000000000000000000000000000060648201526084016106be565b61180a565b73ffffffffffffffffffffffffffffffffffffffff831673a0b86991c6218b36c1d19d4a2e9eb0ce3606eb4814156117a857806fffffffffffffffffffffffffffffffff16600b60006116c7611eea565b815260200190815260200160002060008282546116e491906123a7565b92505081905550806fffffffffffffffffffffffffffffffff16600c600082825461170f91906123a7565b9091555050600d54600c541115611671576040517f08c379a000000000000000000000000000000000000000000000000000000000815260206004820152602760248201527f556e693a3a6465706f7369743a20746f74616c4c69717569646974792065786360448201527f656564206d61780000000000000000000000000000000000000000000000000060648201526084016106be565b6040517f08c379a000000000000000000000000000000000000000000000000000000000815260206004820152601f60248201527f556e693a3a6465706f7369743a20696d70726f70657220746f6b656e2069640060448201526064016106be565b33600081815260116020908152604080832088845290915290819020429055517f23b872dd00000000000000000000000000000000000000000000000000000000815260048101919091523060248201526044810185905273ffffffffffffffffffffffffffffffffffffffff7f000000000000000000000000000000000000000000000000000000000000000016906323b872dd90606401600060405180830381600087803b1580156118bd57600080fd5b505af11580156118d1573d6000803e3d6000fd5b5050604080518781523360208201527f4bcc17093cdf51079c755de089be5a85e70fa374ec656c194480fbdcda224a53935001905060405180910390a150505050565b61191c611da1565b73ffffffffffffffffffffffffffffffffffffffff81166119bf576040517f08c379a000000000000000000000000000000000000000000000000000000000815260206004820152602660248201527f4f776e61626c653a206e6577206f776e657220697320746865207a65726f206160448201527f646472657373000000000000000000000000000000000000000000000000000060648201526084016106be565b6119c881611f96565b50565b600a54604080517f83914540000000000000000000000000000000000000000000000000000000008152905160009273ffffffffffffffffffffffffffffffffffffffff16916383914540916004808301926020929190829003018186803b158015611a3657600080fd5b505afa158015611a4a573d6000803e3d6000fd5b505050506040513d601f19601f82011682018060405250810190611a6e9190612279565b90506000730299cb33919dda82c72864f7ed7314a3205fb8c473ffffffffffffffffffffffffffffffffffffffff16638c0e83496040518163ffffffff1660e01b815260040160206040518083038186803b158015611acc57600080fd5b505afa158015611ae0573d6000803e3d6000fd5b505050506040513d601f19601f82011682018060405250810190611b049190612279565b905082600081518110611b1957611b196123d3565b60200260200101516009819055506000600954118015611bff57506040517f6352211e00000000000000000000000000000000000000000000000000000000815260048101829052730299cb33919dda82c72864f7ed7314a3205fb8c490636352211e9060240160206040518083038186803b158015611b9857600080fd5b505afa158015611bac573d6000803e3d6000fd5b505050506040513d601f19601f82011682018060405250810190611bd091906122a2565b73ffffffffffffffffffffffffffffffffffffffff163073ffffffffffffffffffffffffffffffffffffffff16145b611c65576040517f08c379a000000000000000000000000000000000000000000000000000000000815260206004820152600160248201527f210000000000000000000000000000000000000000000000000000000000000060448201526064016106be565b600a546040517f5ea2a2cf0000000000000000000000000000000000000000000000000000000081526004810184905260009173ffffffffffffffffffffffffffffffffffffffff1690635ea2a2cf9060240160006040518083038186803b158015611cd057600080fd5b505afa158015611ce4573d6000803e3d6000fd5b505050506040513d6000823e601f3d9081017fffffffffffffffffffffffffffffffffffffffffffffffffffffffffffffffe0168201604052611d2a9190810190612402565b905060008151600954611d3d91906123bf565b9050818181518110611d5157611d516123d3565b6020026020010151600660086101000a81548173ffffffffffffffffffffffffffffffffffffffff021916908373ffffffffffffffffffffffffffffffffffffffff160217905550505050505050565b60005473ffffffffffffffffffffffffffffffffffffffff1633146112df576040517f08c379a000000000000000000000000000000000000000000000000000000000815260206004820181905260248201527f4f776e61626c653a2063616c6c6572206973206e6f7420746865206f776e657260448201526064016106be565b60008060007f000000000000000000000000000000000000000000000000000000000000000073ffffffffffffffffffffffffffffffffffffffff166399fbab88856040518263ffffffff1660e01b8152600401611e8291815260200190565b6101806040518083038186803b158015611e9b57600080fd5b505afa158015611eaf573d6000803e3d6000fd5b505050506040513d601f19601f82011682018060405250810190611ed391906124e1565b50979e969d50919b50949950505050505050505050565b600062093a80611f1a7f000000000000000000000000000000000000000000000000000000000000000042612310565b611f249190612356565b6000818152600e6020526040902054909150158015611f4557506000600f54115b15611f5d57600f546000828152600e60205260409020555b6000818152600b6020526040902054158015611f7b57506000600c54115b15611f9357600c546000828152600b60205260409020555b90565b6000805473ffffffffffffffffffffffffffffffffffffffff8381167fffffffffffffffffffffffff0000000000000000000000000000000000000000831681178455604051919092169283917f8be0079c531659141344cd1fd0a4f28419497f9722a3daafe3b4186f6b6457e09190a35050565b73ffffffffffffffffffffffffffffffffffffffff811681146119c857600080fd5b60008060008060006080868803121561204557600080fd5b85356120508161200b565b945060208601356120608161200b565b935060408601359250606086013567ffffffffffffffff8082111561208457600080fd5b818801915088601f83011261209857600080fd5b8135818111156120a757600080fd5b8960208285010111156120b957600080fd5b9699959850939650602001949392505050565b7f4e487b7100000000000000000000000000000000000000000000000000000000600052604160045260246000fd5b604051601f82017fffffffffffffffffffffffffffffffffffffffffffffffffffffffffffffffe016810167ffffffffffffffff81118282101715612142576121426120cc565b604052919050565b600067ffffffffffffffff821115612164576121646120cc565b5060051b60200190565b6000806040838503121561218157600080fd5b8235915060208084013567ffffffffffffffff8111156121a057600080fd5b8401601f810186136121b157600080fd5b80356121c46121bf8261214a565b6120fb565b81815260059190911b820183019083810190888311156121e357600080fd5b928401925b82841015612201578335825292840192908401906121e8565b80955050505050509250929050565b60006020828403121561222257600080fd5b5035919050565b6000806040838503121561223c57600080fd5b82356122478161200b565b946020939093013593505050565b60006020828403121561226757600080fd5b81356122728161200b565b9392505050565b60006020828403121561228b57600080fd5b5051919050565b805161229d8161200b565b919050565b6000602082840312156122b457600080fd5b81516122728161200b565b6000602082840312156122d157600080fd5b8151801515811461227257600080fd5b7f4e487b7100000000000000000000000000000000000000000000000000000000600052601160045260246000fd5b600082821015612322576123226122e1565b500390565b7f4e487b7100000000000000000000000000000000000000000000000000000000600052601260045260246000fd5b60008261236557612365612327565b500490565b6000817fffffffffffffffffffffffffffffffffffffffffffffffffffffffffffffffff04831182151516156123a2576123a26122e1565b500290565b600082198211156123ba576123ba6122e1565b500190565b6000826123ce576123ce612327565b500690565b7f4e487b7100000000000000000000000000000000000000000000000000000000600052603260045260246000fd5b6000602080838503121561241557600080fd5b825167ffffffffffffffff81111561242c57600080fd5b8301601f8101851361243d57600080fd5b805161244b6121bf8261214a565b81815260059190911b8201830190838101908783111561246a57600080fd5b928401925b828410156124915783516124828161200b565b8252928401929084019061246f565b979650505050505050565b805162ffffff8116811461229d57600080fd5b8051600281900b811461229d57600080fd5b80516fffffffffffffffffffffffffffffffff8116811461229d57600080fd5b6000806000806000806000806000806000806101808d8f03121561250457600080fd5b8c516bffffffffffffffffffffffff8116811461252057600080fd5b9b5061252e60208e01612292565b9a5061253c60408e01612292565b995061254a60608e01612292565b985061255860808e0161249c565b975061256660a08e016124af565b965061257460c08e016124af565b955061258260e08e016124c1565b94506101008d015193506101208d015192506125a16101408e016124c1565b91506125b06101608e016124c1565b90509295989b509295989b509295989b56fea164736f6c6343000808000a",
  "linkReferences": {},
  "deployedLinkReferences": {}
}